{
  "contracts/DeviceSharing.sol": {
    "DeviceSharing": {
      "abi": [
        {
          "inputs": [
            {
              "internalType": "address",
              "name": "initialOwner",
              "type": "address"
            }
          ],
          "stateMutability": "nonpayable",
          "type": "constructor"
        },
        {
          "inputs": [
            {
              "internalType": "address",
              "name": "owner",
              "type": "address"
            }
          ],
          "name": "OwnableInvalidOwner",
          "type": "error"
        },
        {
          "inputs": [
            {
              "internalType": "address",
              "name": "account",
              "type": "address"
            }
          ],
          "name": "OwnableUnauthorizedAccount",
          "type": "error"
        },
        {
          "inputs": [],
          "name": "ReentrancyGuardReentrantCall",
          "type": "error"
        },
        {
          "anonymous": false,
          "inputs": [
            {
              "indexed": true,
              "internalType": "uint256",
              "name": "id",
              "type": "uint256"
            },
            {
              "indexed": true,
              "internalType": "bytes32",
              "name": "deviceId",
              "type": "bytes32"
            },
            {
              "indexed": true,
              "internalType": "address",
              "name": "deviceOwner",
              "type": "address"
            },
            {
              "indexed": false,
              "internalType": "uint256",
              "name": "feePerDay",
              "type": "uint256"
            }
          ],
          "name": "DeviceRegistered",
          "type": "event"
        },
        {
          "anonymous": false,
          "inputs": [
            {
              "indexed": true,
              "internalType": "uint256",
              "name": "id",
              "type": "uint256"
            },
            {
              "indexed": true,
              "internalType": "address",
              "name": "owner",
              "type": "address"
            }
          ],
          "name": "DeviceRemoved",
          "type": "event"
        },
        {
          "anonymous": false,
          "inputs": [
            {
              "indexed": true,
              "internalType": "uint256",
              "name": "id",
              "type": "uint256"
            },
            {
              "indexed": false,
              "internalType": "bool",
              "name": "isActive",
              "type": "bool"
            },
            {
              "indexed": true,
              "internalType": "address",
              "name": "owner",
              "type": "address"
            }
          ],
          "name": "DeviceStatusChanged",
          "type": "event"
        },
        {
          "anonymous": false,
          "inputs": [
            {
              "indexed": true,
              "internalType": "uint256",
              "name": "id",
              "type": "uint256"
            },
            {
              "indexed": false,
              "internalType": "uint256",
              "name": "feePerDay",
              "type": "uint256"
            },
            {
              "indexed": true,
              "internalType": "address",
              "name": "owner",
              "type": "address"
            }
          ],
          "name": "DeviceUpdated",
          "type": "event"
        },
        {
          "anonymous": false,
          "inputs": [
            {
              "indexed": true,
              "internalType": "address",
              "name": "subscriber",
              "type": "address"
            },
            {
              "indexed": false,
              "internalType": "address",
              "name": "deviceOwner",
              "type": "address"
            },
            {
              "indexed": false,
              "internalType": "uint256",
              "name": "totalFee",
              "type": "uint256"
            }
          ],
          "name": "FeePaid",
          "type": "event"
        },
        {
          "anonymous": false,
          "inputs": [
            {
              "indexed": true,
              "internalType": "address",
              "name": "previousOwner",
              "type": "address"
            },
            {
              "indexed": true,
              "internalType": "address",
              "name": "newOwner",
              "type": "address"
            }
          ],
          "name": "OwnershipTransferred",
          "type": "event"
        },
        {
          "anonymous": false,
          "inputs": [
            {
              "indexed": true,
              "internalType": "uint256",
              "name": "id",
              "type": "uint256"
            },
            {
              "indexed": false,
              "internalType": "uint256",
              "name": "registrationReward",
              "type": "uint256"
            },
            {
              "indexed": false,
              "internalType": "address",
              "name": "deviceOwner",
              "type": "address"
            }
          ],
          "name": "RegistrationRewardFailed",
          "type": "event"
        },
        {
          "anonymous": false,
          "inputs": [
            {
              "indexed": true,
              "internalType": "uint256",
              "name": "id",
              "type": "uint256"
            },
            {
              "indexed": false,
              "internalType": "uint256",
              "name": "registrationReward",
              "type": "uint256"
            },
            {
              "indexed": false,
              "internalType": "address",
              "name": "deviceOwner",
              "type": "address"
            }
          ],
          "name": "RegistrationRewardPaid",
          "type": "event"
        },
        {
          "anonymous": false,
          "inputs": [
            {
              "indexed": true,
              "internalType": "uint256",
              "name": "id",
              "type": "uint256"
            },
            {
              "indexed": true,
              "internalType": "address",
              "name": "subscriber",
              "type": "address"
            },
            {
              "indexed": true,
              "internalType": "bytes32",
              "name": "deviceId",
              "type": "bytes32"
            },
            {
              "indexed": false,
              "internalType": "uint256",
              "name": "startTime",
              "type": "uint256"
            },
            {
              "indexed": false,
              "internalType": "uint256",
              "name": "endTime",
              "type": "uint256"
            },
            {
              "indexed": false,
              "internalType": "uint256",
              "name": "feePaid",
              "type": "uint256"
            },
            {
              "indexed": false,
              "internalType": "enum DeviceSharing.Duration",
              "name": "durationType",
              "type": "uint8"
            },
            {
              "indexed": false,
              "internalType": "enum DeviceSharing.SubscriptionStatus",
              "name": "status",
              "type": "uint8"
            }
          ],
          "name": "SubscriptionCreated",
          "type": "event"
        },
        {
          "anonymous": false,
          "inputs": [
            {
              "indexed": true,
              "internalType": "uint256",
              "name": "subscriptionId",
              "type": "uint256"
            },
            {
              "indexed": true,
              "internalType": "address",
              "name": "subscriber",
              "type": "address"
            }
          ],
          "name": "SubscriptionExpired",
          "type": "event"
        },
        {
          "inputs": [
            {
              "internalType": "string",
              "name": "device_id",
              "type": "string"
            },
            {
              "internalType": "bool",
              "name": "newStatus",
              "type": "bool"
            }
          ],
          "name": "changeDeviceStatus",
          "outputs": [],
          "stateMutability": "nonpayable",
          "type": "function"
        },
        {
          "inputs": [
            {
              "internalType": "bytes32",
              "name": "",
              "type": "bytes32"
            }
          ],
          "name": "deviceIdToHash",
          "outputs": [
            {
              "internalType": "uint256",
              "name": "",
              "type": "uint256"
            }
          ],
          "stateMutability": "view",
          "type": "function"
        },
        {
          "inputs": [
            {
              "internalType": "bytes32",
              "name": "",
              "type": "bytes32"
            },
            {
              "internalType": "uint256",
              "name": "",
              "type": "uint256"
            }
          ],
          "name": "deviceSubscriptions",
          "outputs": [
            {
              "internalType": "uint256",
              "name": "",
              "type": "uint256"
            }
          ],
          "stateMutability": "view",
          "type": "function"
        },
        {
          "inputs": [
            {
              "internalType": "uint256",
              "name": "",
              "type": "uint256"
            }
          ],
          "name": "devices",
          "outputs": [
            {
              "internalType": "uint256",
              "name": "id",
              "type": "uint256"
            },
            {
              "internalType": "bytes32",
              "name": "deviceId",
              "type": "bytes32"
            },
            {
              "internalType": "address",
              "name": "deviceOwner",
              "type": "address"
            },
            {
              "internalType": "bool",
              "name": "isActive",
              "type": "bool"
            },
            {
              "internalType": "uint256",
              "name": "feePerDay",
              "type": "uint256"
            }
          ],
          "stateMutability": "view",
          "type": "function"
        },
        {
          "inputs": [
            {
              "internalType": "uint256",
              "name": "subscriptionId",
              "type": "uint256"
            }
          ],
          "name": "expireSubscription",
          "outputs": [],
          "stateMutability": "nonpayable",
          "type": "function"
        },
        {
          "inputs": [],
          "name": "fundContract",
          "outputs": [],
          "stateMutability": "payable",
          "type": "function"
        },
        {
          "inputs": [
            {
              "internalType": "string",
              "name": "device_id",
              "type": "string"
            }
          ],
          "name": "getDeviceByStringID",
          "outputs": [
            {
              "internalType": "uint256",
              "name": "id",
              "type": "uint256"
            },
            {
              "internalType": "bytes32",
              "name": "deviceId",
              "type": "bytes32"
            },
            {
              "internalType": "address",
              "name": "deviceOwner",
              "type": "address"
            },
            {
              "internalType": "bool",
              "name": "isActive",
              "type": "bool"
            },
            {
              "internalType": "uint256",
              "name": "feePerDay",
              "type": "uint256"
            }
          ],
          "stateMutability": "view",
          "type": "function"
        },
        {
          "inputs": [
            {
              "internalType": "uint256",
              "name": "subscriptionId",
              "type": "uint256"
            }
          ],
          "name": "getSubscriptionById",
          "outputs": [
            {
              "internalType": "uint256",
              "name": "id",
              "type": "uint256"
            },
            {
              "internalType": "address",
              "name": "subscriber",
              "type": "address"
            },
            {
              "internalType": "bytes32",
              "name": "deviceId",
              "type": "bytes32"
            },
            {
              "internalType": "uint256",
              "name": "startTime",
              "type": "uint256"
            },
            {
              "internalType": "uint256",
              "name": "endTime",
              "type": "uint256"
            },
            {
              "internalType": "uint256",
              "name": "feePaid",
              "type": "uint256"
            },
            {
              "internalType": "enum DeviceSharing.Duration",
              "name": "durationType",
              "type": "uint8"
            },
            {
              "internalType": "enum DeviceSharing.SubscriptionStatus",
              "name": "status",
              "type": "uint8"
            }
          ],
          "stateMutability": "view",
          "type": "function"
        },
        {
          "inputs": [
            {
              "internalType": "uint256",
              "name": "subscriptionId",
              "type": "uint256"
            }
          ],
          "name": "isSubscriptionActive",
          "outputs": [
            {
              "internalType": "bool",
              "name": "",
              "type": "bool"
            }
          ],
          "stateMutability": "view",
          "type": "function"
        },
        {
          "inputs": [],
          "name": "nextDeviceId",
          "outputs": [
            {
              "internalType": "uint256",
              "name": "",
              "type": "uint256"
            }
          ],
          "stateMutability": "view",
          "type": "function"
        },
        {
          "inputs": [],
          "name": "nextSubscriptionId",
          "outputs": [
            {
              "internalType": "uint256",
              "name": "",
              "type": "uint256"
            }
          ],
          "stateMutability": "view",
          "type": "function"
        },
        {
          "inputs": [],
          "name": "owner",
          "outputs": [
            {
              "internalType": "address",
              "name": "",
              "type": "address"
            }
          ],
          "stateMutability": "view",
          "type": "function"
        },
        {
          "inputs": [
            {
              "internalType": "string",
              "name": "device_id",
              "type": "string"
            },
            {
              "internalType": "uint256",
              "name": "feePerDay",
              "type": "uint256"
            }
          ],
          "name": "registerDevice",
          "outputs": [],
          "stateMutability": "nonpayable",
          "type": "function"
        },
        {
          "inputs": [],
          "name": "registrationReward",
          "outputs": [
            {
              "internalType": "uint256",
              "name": "",
              "type": "uint256"
            }
          ],
          "stateMutability": "view",
          "type": "function"
        },
        {
          "inputs": [
            {
              "internalType": "string",
              "name": "device_id",
              "type": "string"
            }
          ],
          "name": "removeDevice",
          "outputs": [],
          "stateMutability": "nonpayable",
          "type": "function"
        },
        {
          "inputs": [],
          "name": "renounceOwnership",
          "outputs": [],
          "stateMutability": "nonpayable",
          "type": "function"
        },
        {
          "inputs": [
            {
              "internalType": "uint256",
              "name": "_reward",
              "type": "uint256"
            }
          ],
          "name": "setRegistrationReward",
          "outputs": [],
          "stateMutability": "nonpayable",
          "type": "function"
        },
        {
          "inputs": [
            {
              "internalType": "string",
              "name": "device_id",
              "type": "string"
            },
            {
              "internalType": "enum DeviceSharing.Duration",
              "name": "duration",
              "type": "uint8"
            }
          ],
          "name": "subscribe",
          "outputs": [],
          "stateMutability": "payable",
          "type": "function"
        },
        {
          "inputs": [
            {
              "internalType": "uint256",
              "name": "",
              "type": "uint256"
            }
          ],
          "name": "subscriptions",
          "outputs": [
            {
              "internalType": "uint256",
              "name": "id",
              "type": "uint256"
            },
            {
              "internalType": "address",
              "name": "subscriber",
              "type": "address"
            },
            {
              "internalType": "bytes32",
              "name": "deviceId",
              "type": "bytes32"
            },
            {
              "internalType": "uint256",
              "name": "startTime",
              "type": "uint256"
            },
            {
              "internalType": "uint256",
              "name": "endTime",
              "type": "uint256"
            },
            {
              "internalType": "uint256",
              "name": "feePaid",
              "type": "uint256"
            },
            {
              "internalType": "enum DeviceSharing.Duration",
              "name": "durationType",
              "type": "uint8"
            },
            {
              "internalType": "enum DeviceSharing.SubscriptionStatus",
              "name": "status",
              "type": "uint8"
            }
          ],
          "stateMutability": "view",
          "type": "function"
        },
        {
          "inputs": [
            {
              "internalType": "address",
              "name": "newOwner",
              "type": "address"
            }
          ],
          "name": "transferOwnership",
          "outputs": [],
          "stateMutability": "nonpayable",
          "type": "function"
        },
        {
          "inputs": [
            {
              "internalType": "string",
              "name": "device_id",
              "type": "string"
            },
            {
              "internalType": "uint256",
              "name": "newFee",
              "type": "uint256"
            }
          ],
          "name": "updateDevice",
          "outputs": [],
          "stateMutability": "nonpayable",
          "type": "function"
        },
        {
          "stateMutability": "payable",
          "type": "receive"
        }
      ],
      "evm": {
        "bytecode": {
          "linkReferences": {},
          "object": "60803460ca57601f6119c138819003918201601f19168301916001600160401b0383118484101760cf5780849260209460405283398101031260ca57516001600160a01b0381169081900360ca57801560b457600080546001600160a01b031981168317825560405192916001600160a01b03909116907f8be0079c531659141344cd1fd0a4f28419497f9722a3daafe3b4186f6b6457e09080a360018055600160065560016007556118db90816100e68239f35b631e4fbdf760e01b600052600060045260246000fd5b600080fd5b634e487b7160e01b600052604160045260246000fdfe608080604052600436101561001d575b50361561001b57600080fd5b005b60003560e01c90816310ff8e31146115345750806319082e0b1461150857806320062396146114245780632a00706a146112955780632d5bbf601461122d57806345cfb9371461111d578063493a757614610f1b57806357e2c0f514610e5a5780636895b290146109435780636c27a46e1461080f578063715018a6146107b6578063865909f6146107985780638a74e6d2146107775780638da5cb5b1461074e578063afc3afa6146104dd578063bd097e211461047c578063c5574bd314610227578063cdb07754146101df578063da58935f146101c1578063eb780f42146101a35763f2fde38b14610111573861000f565b3461019e57602036600319011261019e576004356001600160a01b0381169081900361019e5761013f61187c565b801561018857600080546001600160a01b03198116831782556001600160a01b0316907f8be0079c531659141344cd1fd0a4f28419497f9722a3daafe3b4186f6b6457e09080a3005b631e4fbdf760e01b600052600060045260246000fd5b600080fd5b3461019e57600036600319011261019e576020600654604051908152f35b3461019e57600036600319011261019e576020600754604051908152f35b3461019e57604036600319011261019e5760243560043560005260056020526040600020805482101561019e5760209161021891611702565b90549060031b1c604051908152f35b3461019e57610235366116d0565b9061024281511515611748565b81156104375760405161026b8161025d602082018095611794565b03601f19810183528261164b565b519020908160005260036020526040600020546103f2576006549161028f8361183d565b60065560405161029e8161162f565b83815260208082018381523360408085019182526001606086018181526080870189815260008b8152600297889052939093209651875593519086015590519284018054925160ff60a01b90151560a01b166001600160a01b039094166001600160a81b0319909316929092179290921790556003905191015580600052600360205282604060002055604051918252827fd06ff819ed431c074e24adbec5556a436c5fd1b17492b3320ce0b09502c4ca6d60203394a4600854801515806103e8575b61036757005b600080808093335af161037861184c565b50156103b357600854604080519182523360208301527f0cc9cb7909b764320c359118f52dfa1490e241b25857c8a645597416b21a2e8791a2005b600854604080519182523360208301527f167c75c86a57db58ffc69587991cae1f914ce828d01205b109ed9f685adc5bbf91a2005b5080471015610361565b60405162461bcd60e51b815260206004820152601960248201527f546869732064657669636520616c7265616479206578697374000000000000006044820152606490fd5b60405162461bcd60e51b815260206004820152601a60248201527f466565206d7573742062652067726561746572207468616e20300000000000006044820152606490fd5b600036600319011261019e5761049061187c565b341561049857005b60405162461bcd60e51b815260206004820152601860248201527f4d7573742073656e6420746f6b656e7320746f2066756e6400000000000000006044820152606490fd5b3461019e57602036600319011261019e5760043567ffffffffffffffff811161019e5761050e903690600401611689565b61051a81511515611748565b60405160208101906105308161025d8486611794565b51902080600052600360205261055e60406000205491826000526002602052600160406000200154146117bf565b600052600260205261058160018060a01b036002604060002001541633146117fe565b6040516105968161025d602082018095611794565b5190208060005260036020526040600020548160005260056020526040600020906040518083602082955493848152019060005260206000209260005b8181106107355750506105e89250038361164b565b60005b825181101561069d57600060208260051b850101518152600460205260ff600660408320015460081c1690600282101561068957501561062d576001016105eb565b60405162461bcd60e51b815260206004820152602e60248201527f43616e6e6f742072656d6f76652064657669636520776974682061637469766560448201526d20737562736372697074696f6e7360901b6064820152608490fd5b634e487b7160e01b81526021600452602490fd5b50828160005260026020526000600360408220828155826001820155826002820155015580600052600360205260006040812055600052600560205260406000208054906000815581610714575b33837f34077899b9358b22cc7053957ccaf74d4a19b82cfb8fea30c5ef595b1b61c4bc600080a3005b6000526020600020908101905b818110156106eb5760008155600101610721565b84548352600194850194879450602090930192016105d3565b3461019e57600036600319011261019e576000546040516001600160a01b039091168152602090f35b3461019e57602036600319011261019e5761079061187c565b600435600855005b3461019e57600036600319011261019e576020600854604051908152f35b3461019e57600036600319011261019e576107cf61187c565b600080546001600160a01b0319811682556001600160a01b03167f8be0079c531659141344cd1fd0a4f28419497f9722a3daafe3b4186f6b6457e08280a3005b3461019e5761081d366116d0565b9061082a81511515611748565b60405160208101906108408161025d8486611794565b51902080600052600360205261086e60406000205491826000526002602052600160406000200154146117bf565b600052600260205261089160018060a01b036002604060002001541633146117fe565b81156108fe576040516108ac8161025d602082018095611794565b5190206000526003602052604060002054806000526002602052816003604060002001556040519182527f21b7e77bde1978b1b6512a0014e5e88d5b124503f18d2fb638c62cffd6c6d4e460203393a3005b60405162461bcd60e51b815260206004820152601760248201527f4665652063616e6e6f742062652030206f72206c6573730000000000000000006044820152606490fd5b604036600319011261019e5760043567ffffffffffffffff811161019e5761096f903690600401611689565b60243590600382101561019e57600260015414610e4957600260015561099781511515611748565b6040516109ac8161025d602082018095611794565b51902080600052600360205260406000205460005260026020526040600020604051906109d88261162f565b805482526001810154806020840152610a218460028401549260806003604088019660018060a01b038716885260ff60608a019760a01c161515875201549601958652146117bf565b5115610e0d5783610db5576001915b519180830292808404821490151715610d6357823410610d795762015180810290808204620151801490151715610d6357420191824211610d635760009460075492610a7b8461183d565b600755604051610a8a816115fc565b84815260066020820191338352604081018981526060820142815260808301908a825260a084019289845260c0850196610ac48a89611730565b60e086019e8f528b600052600460205260406000209551865560018060a01b03905116600186019060018060a01b03166bffffffffffffffffffffffff60a01b825416179055516002850155516003840155516004830155516005820155019051976003891015610d4d5760009860ff80198454169116178255516002811015610d395761ff0082549160081b169061ff00191617905585875260056020526040872080549068010000000000000000821015610d2557610b8f82610ba69260018995018155611702565b819391549060031b91821b91600019901b19161790565b9055868080808660018060a01b038651165af1610bc161184c565b5015610cd55760018060a01b039051166040519081528260208201527fbf6afbaffb3b955bebbf43430bbf8eecb8d34ff86f293f592203ab5ed79c526860403392a2813411610c5d575b610c2a91604051944286526020860152604085015260608401906115a0565b8360808301527fa05c3cae17d36103443ee560cbd4353cc746cb3ed56577f19e85b033f1de479160a03393a46001805580f35b813403348111610cc1578680808093335af1610c7761184c565b50610c0b5760405162461bcd60e51b815260206004820152601f60248201527f4661696c656420746f20726566756e6420657863657373207061796d656e74006044820152606490fd5b634e487b7160e01b87526011600452602487fd5b60405162461bcd60e51b815260206004820152602260248201527f6661696c656420746f2073656e642066656520746f20646576696365206f776e60448201526132b960f11b6064820152608490fd5b634e487b7160e01b89526041600452602489fd5b634e487b7160e01b89526021600452602489fd5b634e487b7160e01b600052602160045260246000fd5b634e487b7160e01b600052601160045260246000fd5b60405162461bcd60e51b8152602060048201526014602482015273125b9cdd59999a58da595b9d081c185e5b595b9d60621b6044820152606490fd5b60018403610dc557600791610a30565b60028403610dd557601e91610a30565b60405162461bcd60e51b815260206004820152601060248201526f24b73b30b634b210323ab930ba34b7b760811b6044820152606490fd5b60405162461bcd60e51b8152602060048201526014602482015273446576696365206973206e6f742061637469766560601b6044820152606490fd5b633ee5aeb560e01b60005260046000fd5b3461019e57602036600319011261019e5760043560005260046020526040600020604051610e87816115fc565b8154815260018060a01b0360018301541660208201526002820154604082015260038201546060820152610eef60ff60e0600660048601549560808601968752600581015460a0870152015493610ee383861660c08301611730565b019260081c168261173c565b51906002821015610d4d57602091159081610f10575b506040519015158152f35b905051421082610f05565b3461019e57602036600319011261019e576004358060005260046020526040600020600681019060ff825460081c166002811015610d4d576110d8576004810154421115611089576002810154825461ff00191661010017909255600101546001600160a01b0316827f9656891580eaa37c2f3f563b0bfd328350a3b08b70dda0d9c2cb9995ada7867c600080a381600052600460205260006006604082208281558260018201558260028201558260038201558260048201558260058201550155600052600560205260406000209060005b82548082101561001b57826110038386611702565b90549060031b1c146110185750600101610fee565b9091506000198101908111610d6357610b8f6110376110459285611702565b90549060031b1c9284611702565b90558054801561107357600019019061105e8282611702565b8154906000199060031b1b1916905555600080f35b634e487b7160e01b600052603160045260246000fd5b60405162461bcd60e51b815260206004820152602160248201527f537562736372697074696f6e20706572696f64206e6f7420656e6465642079656044820152601d60fa1b6064820152608490fd5b60405162461bcd60e51b815260206004820152601a60248201527f537562736372697074696f6e206973206e6f74206163746976650000000000006044820152606490fd5b3461019e57602036600319011261019e5760043567ffffffffffffffff811161019e5761114e903690600401611689565b61115a81511515611748565b60405161116f8161025d602082018095611794565b5190208060005260036020526040600020546000526002602052604060002061122960405161119d8161162f565b8254815260018301548060208301526002840154916111e7866003604084019760018060a01b038716895260ff606086019760a01c161515875201549360808401948552146117bf565b519351915190516040805195865260208601969096526001600160a01b03909216948401949094529215156060830152608082019290925290819060a0820190565b0390f35b3461019e57602036600319011261019e576004356000526004602052604060002080549061122960018060a01b03600183015416916002810154936003820154916004810154600660058301549201549360405197889760ff808860081c16971695896115ad565b3461019e57604036600319011261019e5760043567ffffffffffffffff811161019e576112c6903690600401611689565b6024358015159182820361019e576112e081511515611748565b60405160208101906112f68161025d8486611794565b51902080600052600360205261132460406000205491826000526002602052600160406000200154146117bf565b600052600260205261134760018060a01b036002604060002001541633146117fe565b60405161135c8161025d602082018095611794565b5190206000526003602052604060002054908160005260026020528260ff60026040600020015460a01c161515146113e957600082815260026020819052604090912001805460ff60a01b191691151560a01b60ff60a01b169190911790556040519182527f110f85c5b3d225e011c0343e0461cb8f14ec3498c0a18e07c0a366773ceb66b260203393a3005b60405162461bcd60e51b81526020600482015260136024820152724e6f206368616e676520696e2073746174757360681b6044820152606490fd5b3461019e57602036600319011261019e576004356000526004602052604060002060405190611452826115fc565b8054825260018060a01b036001820154169060208301918252600281015492604081019384526003820154916060820192835260048101549160808101928352600660058301549260a0830193845201549160c08201916114b660ff851684611730565b6114ca60ff60e083019560081c168561173c565b519551965194519351905191516001600160a01b0390971696926003841015610d4d5751936002851015610d4d5761122995604051988998896115ad565b3461019e57602036600319011261019e5760043560005260036020526020604060002054604051908152f35b3461019e57602036600319011261019e576004356000908152600260208181526040928390208054600182015493820154600390920154908652918501929092526001600160a01b0382169284019290925260ff60a091821c1615156060840152608083019190915290f35b906003821015610d4d5752565b95926115ed959299989794919961010088019a885260018060a01b0316602088015260408701526060860152608085015260a084015260c08301906115a0565b6002821015610d4d5760e00152565b610100810190811067ffffffffffffffff82111761161957604052565b634e487b7160e01b600052604160045260246000fd5b60a0810190811067ffffffffffffffff82111761161957604052565b90601f8019910116810190811067ffffffffffffffff82111761161957604052565b67ffffffffffffffff811161161957601f01601f191660200190565b81601f8201121561019e578035906116a08261166d565b926116ae604051948561164b565b8284526020838301011161019e57816000926020809301838601378301015290565b604060031982011261019e576004359067ffffffffffffffff821161019e576116fb91600401611689565b9060243590565b805482101561171a5760005260206000200190600090565b634e487b7160e01b600052603260045260246000fd5b6003821015610d4d5752565b6002821015610d4d5752565b1561174f57565b60405162461bcd60e51b815260206004820152601960248201527f4465766963652049442063616e6e6f7420626520656d707479000000000000006044820152606490fd5b9081519160005b8381106117ac575050016000815290565b806020809284010151818501520161179b565b156117c657565b60405162461bcd60e51b815260206004820152601060248201526f11195d9a58d9481b9bdd08199bdd5b9960821b6044820152606490fd5b1561180557565b60405162461bcd60e51b815260206004820152601060248201526f2737ba103232bb34b1b29037bbb732b960811b6044820152606490fd5b6000198114610d635760010190565b3d15611877573d9061185d8261166d565b9161186b604051938461164b565b82523d6000602084013e565b606090565b6000546001600160a01b0316330361189057565b63118cdaa760e01b6000523360045260246000fdfea264697066735822122024314a691396f6e7a7e0bab2e5a118d3c0598bace87637cfc3c53ceb09c9843464736f6c634300081c0033",
          "opcodes": "PUSH1 0x80 CALLVALUE PUSH1 0xCA JUMPI PUSH1 0x1F PUSH2 0x19C1 CODESIZE DUP2 SWAP1 SUB SWAP2 DUP3 ADD PUSH1 0x1F NOT AND DUP4 ADD SWAP2 PUSH1 0x1 PUSH1 0x1 PUSH1 0x40 SHL SUB DUP4 GT DUP5 DUP5 LT OR PUSH1 0xCF JUMPI DUP1 DUP5 SWAP3 PUSH1 0x20 SWAP5 PUSH1 0x40 MSTORE DUP4 CODECOPY DUP2 ADD SUB SLT PUSH1 0xCA JUMPI MLOAD PUSH1 0x1 PUSH1 0x1 PUSH1 0xA0 SHL SUB DUP2 AND SWAP1 DUP2 SWAP1 SUB PUSH1 0xCA JUMPI DUP1 ISZERO PUSH1 0xB4 JUMPI PUSH1 0x0 DUP1 SLOAD PUSH1 0x1 PUSH1 0x1 PUSH1 0xA0 SHL SUB NOT DUP2 AND DUP4 OR DUP3 SSTORE PUSH1 0x40 MLOAD SWAP3 SWAP2 PUSH1 0x1 PUSH1 0x1 PUSH1 0xA0 SHL SUB SWAP1 SWAP2 AND SWAP1 PUSH32 0x8BE0079C531659141344CD1FD0A4F28419497F9722A3DAAFE3B4186F6B6457E0 SWAP1 DUP1 LOG3 PUSH1 0x1 DUP1 SSTORE PUSH1 0x1 PUSH1 0x6 SSTORE PUSH1 0x1 PUSH1 0x7 SSTORE PUSH2 0x18DB SWAP1 DUP2 PUSH2 0xE6 DUP3 CODECOPY RETURN JUMPDEST PUSH4 0x1E4FBDF7 PUSH1 0xE0 SHL PUSH1 0x0 MSTORE PUSH1 0x0 PUSH1 0x4 MSTORE PUSH1 0x24 PUSH1 0x0 REVERT JUMPDEST PUSH1 0x0 DUP1 REVERT JUMPDEST PUSH4 0x4E487B71 PUSH1 0xE0 SHL PUSH1 0x0 MSTORE PUSH1 0x41 PUSH1 0x4 MSTORE PUSH1 0x24 PUSH1 0x0 REVERT INVALID PUSH1 0x80 DUP1 PUSH1 0x40 MSTORE PUSH1 0x4 CALLDATASIZE LT ISZERO PUSH2 0x1D JUMPI JUMPDEST POP CALLDATASIZE ISZERO PUSH2 0x1B JUMPI PUSH1 0x0 DUP1 REVERT JUMPDEST STOP JUMPDEST PUSH1 0x0 CALLDATALOAD PUSH1 0xE0 SHR SWAP1 DUP2 PUSH4 0x10FF8E31 EQ PUSH2 0x1534 JUMPI POP DUP1 PUSH4 0x19082E0B EQ PUSH2 0x1508 JUMPI DUP1 PUSH4 0x20062396 EQ PUSH2 0x1424 JUMPI DUP1 PUSH4 0x2A00706A EQ PUSH2 0x1295 JUMPI DUP1 PUSH4 0x2D5BBF60 EQ PUSH2 0x122D JUMPI DUP1 PUSH4 0x45CFB937 EQ PUSH2 0x111D JUMPI DUP1 PUSH4 0x493A7576 EQ PUSH2 0xF1B JUMPI DUP1 PUSH4 0x57E2C0F5 EQ PUSH2 0xE5A JUMPI DUP1 PUSH4 0x6895B290 EQ PUSH2 0x943 JUMPI DUP1 PUSH4 0x6C27A46E EQ PUSH2 0x80F JUMPI DUP1 PUSH4 0x715018A6 EQ PUSH2 0x7B6 JUMPI DUP1 PUSH4 0x865909F6 EQ PUSH2 0x798 JUMPI DUP1 PUSH4 0x8A74E6D2 EQ PUSH2 0x777 JUMPI DUP1 PUSH4 0x8DA5CB5B EQ PUSH2 0x74E JUMPI DUP1 PUSH4 0xAFC3AFA6 EQ PUSH2 0x4DD JUMPI DUP1 PUSH4 0xBD097E21 EQ PUSH2 0x47C JUMPI DUP1 PUSH4 0xC5574BD3 EQ PUSH2 0x227 JUMPI DUP1 PUSH4 0xCDB07754 EQ PUSH2 0x1DF JUMPI DUP1 PUSH4 0xDA58935F EQ PUSH2 0x1C1 JUMPI DUP1 PUSH4 0xEB780F42 EQ PUSH2 0x1A3 JUMPI PUSH4 0xF2FDE38B EQ PUSH2 0x111 JUMPI CODESIZE PUSH2 0xF JUMP JUMPDEST CALLVALUE PUSH2 0x19E JUMPI PUSH1 0x20 CALLDATASIZE PUSH1 0x3 NOT ADD SLT PUSH2 0x19E JUMPI PUSH1 0x4 CALLDATALOAD PUSH1 0x1 PUSH1 0x1 PUSH1 0xA0 SHL SUB DUP2 AND SWAP1 DUP2 SWAP1 SUB PUSH2 0x19E JUMPI PUSH2 0x13F PUSH2 0x187C JUMP JUMPDEST DUP1 ISZERO PUSH2 0x188 JUMPI PUSH1 0x0 DUP1 SLOAD PUSH1 0x1 PUSH1 0x1 PUSH1 0xA0 SHL SUB NOT DUP2 AND DUP4 OR DUP3 SSTORE PUSH1 0x1 PUSH1 0x1 PUSH1 0xA0 SHL SUB AND SWAP1 PUSH32 0x8BE0079C531659141344CD1FD0A4F28419497F9722A3DAAFE3B4186F6B6457E0 SWAP1 DUP1 LOG3 STOP JUMPDEST PUSH4 0x1E4FBDF7 PUSH1 0xE0 SHL PUSH1 0x0 MSTORE PUSH1 0x0 PUSH1 0x4 MSTORE PUSH1 0x24 PUSH1 0x0 REVERT JUMPDEST PUSH1 0x0 DUP1 REVERT JUMPDEST CALLVALUE PUSH2 0x19E JUMPI PUSH1 0x0 CALLDATASIZE PUSH1 0x3 NOT ADD SLT PUSH2 0x19E JUMPI PUSH1 0x20 PUSH1 0x6 SLOAD PUSH1 0x40 MLOAD SWAP1 DUP2 MSTORE RETURN JUMPDEST CALLVALUE PUSH2 0x19E JUMPI PUSH1 0x0 CALLDATASIZE PUSH1 0x3 NOT ADD SLT PUSH2 0x19E JUMPI PUSH1 0x20 PUSH1 0x7 SLOAD PUSH1 0x40 MLOAD SWAP1 DUP2 MSTORE RETURN JUMPDEST CALLVALUE PUSH2 0x19E JUMPI PUSH1 0x40 CALLDATASIZE PUSH1 0x3 NOT ADD SLT PUSH2 0x19E JUMPI PUSH1 0x24 CALLDATALOAD PUSH1 0x4 CALLDATALOAD PUSH1 0x0 MSTORE PUSH1 0x5 PUSH1 0x20 MSTORE PUSH1 0x40 PUSH1 0x0 KECCAK256 DUP1 SLOAD DUP3 LT ISZERO PUSH2 0x19E JUMPI PUSH1 0x20 SWAP2 PUSH2 0x218 SWAP2 PUSH2 0x1702 JUMP JUMPDEST SWAP1 SLOAD SWAP1 PUSH1 0x3 SHL SHR PUSH1 0x40 MLOAD SWAP1 DUP2 MSTORE RETURN JUMPDEST CALLVALUE PUSH2 0x19E JUMPI PUSH2 0x235 CALLDATASIZE PUSH2 0x16D0 JUMP JUMPDEST SWAP1 PUSH2 0x242 DUP2 MLOAD ISZERO ISZERO PUSH2 0x1748 JUMP JUMPDEST DUP2 ISZERO PUSH2 0x437 JUMPI PUSH1 0x40 MLOAD PUSH2 0x26B DUP2 PUSH2 0x25D PUSH1 0x20 DUP3 ADD DUP1 SWAP6 PUSH2 0x1794 JUMP JUMPDEST SUB PUSH1 0x1F NOT DUP2 ADD DUP4 MSTORE DUP3 PUSH2 0x164B JUMP JUMPDEST MLOAD SWAP1 KECCAK256 SWAP1 DUP2 PUSH1 0x0 MSTORE PUSH1 0x3 PUSH1 0x20 MSTORE PUSH1 0x40 PUSH1 0x0 KECCAK256 SLOAD PUSH2 0x3F2 JUMPI PUSH1 0x6 SLOAD SWAP2 PUSH2 0x28F DUP4 PUSH2 0x183D JUMP JUMPDEST PUSH1 0x6 SSTORE PUSH1 0x40 MLOAD PUSH2 0x29E DUP2 PUSH2 0x162F JUMP JUMPDEST DUP4 DUP2 MSTORE PUSH1 0x20 DUP1 DUP3 ADD DUP4 DUP2 MSTORE CALLER PUSH1 0x40 DUP1 DUP6 ADD SWAP2 DUP3 MSTORE PUSH1 0x1 PUSH1 0x60 DUP7 ADD DUP2 DUP2 MSTORE PUSH1 0x80 DUP8 ADD DUP10 DUP2 MSTORE PUSH1 0x0 DUP12 DUP2 MSTORE PUSH1 0x2 SWAP8 DUP9 SWAP1 MSTORE SWAP4 SWAP1 SWAP4 KECCAK256 SWAP7 MLOAD DUP8 SSTORE SWAP4 MLOAD SWAP1 DUP7 ADD SSTORE SWAP1 MLOAD SWAP3 DUP5 ADD DUP1 SLOAD SWAP3 MLOAD PUSH1 0xFF PUSH1 0xA0 SHL SWAP1 ISZERO ISZERO PUSH1 0xA0 SHL AND PUSH1 0x1 PUSH1 0x1 PUSH1 0xA0 SHL SUB SWAP1 SWAP5 AND PUSH1 0x1 PUSH1 0x1 PUSH1 0xA8 SHL SUB NOT SWAP1 SWAP4 AND SWAP3 SWAP1 SWAP3 OR SWAP3 SWAP1 SWAP3 OR SWAP1 SSTORE PUSH1 0x3 SWAP1 MLOAD SWAP2 ADD SSTORE DUP1 PUSH1 0x0 MSTORE PUSH1 0x3 PUSH1 0x20 MSTORE DUP3 PUSH1 0x40 PUSH1 0x0 KECCAK256 SSTORE PUSH1 0x40 MLOAD SWAP2 DUP3 MSTORE DUP3 PUSH32 0xD06FF819ED431C074E24ADBEC5556A436C5FD1B17492B3320CE0B09502C4CA6D PUSH1 0x20 CALLER SWAP5 LOG4 PUSH1 0x8 SLOAD DUP1 ISZERO ISZERO DUP1 PUSH2 0x3E8 JUMPI JUMPDEST PUSH2 0x367 JUMPI STOP JUMPDEST PUSH1 0x0 DUP1 DUP1 DUP1 SWAP4 CALLER GAS CALL PUSH2 0x378 PUSH2 0x184C JUMP JUMPDEST POP ISZERO PUSH2 0x3B3 JUMPI PUSH1 0x8 SLOAD PUSH1 0x40 DUP1 MLOAD SWAP2 DUP3 MSTORE CALLER PUSH1 0x20 DUP4 ADD MSTORE PUSH32 0xCC9CB7909B764320C359118F52DFA1490E241B25857C8A645597416B21A2E87 SWAP2 LOG2 STOP JUMPDEST PUSH1 0x8 SLOAD PUSH1 0x40 DUP1 MLOAD SWAP2 DUP3 MSTORE CALLER PUSH1 0x20 DUP4 ADD MSTORE PUSH32 0x167C75C86A57DB58FFC69587991CAE1F914CE828D01205B109ED9F685ADC5BBF SWAP2 LOG2 STOP JUMPDEST POP DUP1 SELFBALANCE LT ISZERO PUSH2 0x361 JUMP JUMPDEST PUSH1 0x40 MLOAD PUSH3 0x461BCD PUSH1 0xE5 SHL DUP2 MSTORE PUSH1 0x20 PUSH1 0x4 DUP3 ADD MSTORE PUSH1 0x19 PUSH1 0x24 DUP3 ADD MSTORE PUSH32 0x546869732064657669636520616C726561647920657869737400000000000000 PUSH1 0x44 DUP3 ADD MSTORE PUSH1 0x64 SWAP1 REVERT JUMPDEST PUSH1 0x40 MLOAD PUSH3 0x461BCD PUSH1 0xE5 SHL DUP2 MSTORE PUSH1 0x20 PUSH1 0x4 DUP3 ADD MSTORE PUSH1 0x1A PUSH1 0x24 DUP3 ADD MSTORE PUSH32 0x466565206D7573742062652067726561746572207468616E2030000000000000 PUSH1 0x44 DUP3 ADD MSTORE PUSH1 0x64 SWAP1 REVERT JUMPDEST PUSH1 0x0 CALLDATASIZE PUSH1 0x3 NOT ADD SLT PUSH2 0x19E JUMPI PUSH2 0x490 PUSH2 0x187C JUMP JUMPDEST CALLVALUE ISZERO PUSH2 0x498 JUMPI STOP JUMPDEST PUSH1 0x40 MLOAD PUSH3 0x461BCD PUSH1 0xE5 SHL DUP2 MSTORE PUSH1 0x20 PUSH1 0x4 DUP3 ADD MSTORE PUSH1 0x18 PUSH1 0x24 DUP3 ADD MSTORE PUSH32 0x4D7573742073656E6420746F6B656E7320746F2066756E640000000000000000 PUSH1 0x44 DUP3 ADD MSTORE PUSH1 0x64 SWAP1 REVERT JUMPDEST CALLVALUE PUSH2 0x19E JUMPI PUSH1 0x20 CALLDATASIZE PUSH1 0x3 NOT ADD SLT PUSH2 0x19E JUMPI PUSH1 0x4 CALLDATALOAD PUSH8 0xFFFFFFFFFFFFFFFF DUP2 GT PUSH2 0x19E JUMPI PUSH2 0x50E SWAP1 CALLDATASIZE SWAP1 PUSH1 0x4 ADD PUSH2 0x1689 JUMP JUMPDEST PUSH2 0x51A DUP2 MLOAD ISZERO ISZERO PUSH2 0x1748 JUMP JUMPDEST PUSH1 0x40 MLOAD PUSH1 0x20 DUP2 ADD SWAP1 PUSH2 0x530 DUP2 PUSH2 0x25D DUP5 DUP7 PUSH2 0x1794 JUMP JUMPDEST MLOAD SWAP1 KECCAK256 DUP1 PUSH1 0x0 MSTORE PUSH1 0x3 PUSH1 0x20 MSTORE PUSH2 0x55E PUSH1 0x40 PUSH1 0x0 KECCAK256 SLOAD SWAP2 DUP3 PUSH1 0x0 MSTORE PUSH1 0x2 PUSH1 0x20 MSTORE PUSH1 0x1 PUSH1 0x40 PUSH1 0x0 KECCAK256 ADD SLOAD EQ PUSH2 0x17BF JUMP JUMPDEST PUSH1 0x0 MSTORE PUSH1 0x2 PUSH1 0x20 MSTORE PUSH2 0x581 PUSH1 0x1 DUP1 PUSH1 0xA0 SHL SUB PUSH1 0x2 PUSH1 0x40 PUSH1 0x0 KECCAK256 ADD SLOAD AND CALLER EQ PUSH2 0x17FE JUMP JUMPDEST PUSH1 0x40 MLOAD PUSH2 0x596 DUP2 PUSH2 0x25D PUSH1 0x20 DUP3 ADD DUP1 SWAP6 PUSH2 0x1794 JUMP JUMPDEST MLOAD SWAP1 KECCAK256 DUP1 PUSH1 0x0 MSTORE PUSH1 0x3 PUSH1 0x20 MSTORE PUSH1 0x40 PUSH1 0x0 KECCAK256 SLOAD DUP2 PUSH1 0x0 MSTORE PUSH1 0x5 PUSH1 0x20 MSTORE PUSH1 0x40 PUSH1 0x0 KECCAK256 SWAP1 PUSH1 0x40 MLOAD DUP1 DUP4 PUSH1 0x20 DUP3 SWAP6 SLOAD SWAP4 DUP5 DUP2 MSTORE ADD SWAP1 PUSH1 0x0 MSTORE PUSH1 0x20 PUSH1 0x0 KECCAK256 SWAP3 PUSH1 0x0 JUMPDEST DUP2 DUP2 LT PUSH2 0x735 JUMPI POP POP PUSH2 0x5E8 SWAP3 POP SUB DUP4 PUSH2 0x164B JUMP JUMPDEST PUSH1 0x0 JUMPDEST DUP3 MLOAD DUP2 LT ISZERO PUSH2 0x69D JUMPI PUSH1 0x0 PUSH1 0x20 DUP3 PUSH1 0x5 SHL DUP6 ADD ADD MLOAD DUP2 MSTORE PUSH1 0x4 PUSH1 0x20 MSTORE PUSH1 0xFF PUSH1 0x6 PUSH1 0x40 DUP4 KECCAK256 ADD SLOAD PUSH1 0x8 SHR AND SWAP1 PUSH1 0x2 DUP3 LT ISZERO PUSH2 0x689 JUMPI POP ISZERO PUSH2 0x62D JUMPI PUSH1 0x1 ADD PUSH2 0x5EB JUMP JUMPDEST PUSH1 0x40 MLOAD PUSH3 0x461BCD PUSH1 0xE5 SHL DUP2 MSTORE PUSH1 0x20 PUSH1 0x4 DUP3 ADD MSTORE PUSH1 0x2E PUSH1 0x24 DUP3 ADD MSTORE PUSH32 0x43616E6E6F742072656D6F766520646576696365207769746820616374697665 PUSH1 0x44 DUP3 ADD MSTORE PUSH14 0x20737562736372697074696F6E73 PUSH1 0x90 SHL PUSH1 0x64 DUP3 ADD MSTORE PUSH1 0x84 SWAP1 REVERT JUMPDEST PUSH4 0x4E487B71 PUSH1 0xE0 SHL DUP2 MSTORE PUSH1 0x21 PUSH1 0x4 MSTORE PUSH1 0x24 SWAP1 REVERT JUMPDEST POP DUP3 DUP2 PUSH1 0x0 MSTORE PUSH1 0x2 PUSH1 0x20 MSTORE PUSH1 0x0 PUSH1 0x3 PUSH1 0x40 DUP3 KECCAK256 DUP3 DUP2 SSTORE DUP3 PUSH1 0x1 DUP3 ADD SSTORE DUP3 PUSH1 0x2 DUP3 ADD SSTORE ADD SSTORE DUP1 PUSH1 0x0 MSTORE PUSH1 0x3 PUSH1 0x20 MSTORE PUSH1 0x0 PUSH1 0x40 DUP2 KECCAK256 SSTORE PUSH1 0x0 MSTORE PUSH1 0x5 PUSH1 0x20 MSTORE PUSH1 0x40 PUSH1 0x0 KECCAK256 DUP1 SLOAD SWAP1 PUSH1 0x0 DUP2 SSTORE DUP2 PUSH2 0x714 JUMPI JUMPDEST CALLER DUP4 PUSH32 0x34077899B9358B22CC7053957CCAF74D4A19B82CFB8FEA30C5EF595B1B61C4BC PUSH1 0x0 DUP1 LOG3 STOP JUMPDEST PUSH1 0x0 MSTORE PUSH1 0x20 PUSH1 0x0 KECCAK256 SWAP1 DUP2 ADD SWAP1 JUMPDEST DUP2 DUP2 LT ISZERO PUSH2 0x6EB JUMPI PUSH1 0x0 DUP2 SSTORE PUSH1 0x1 ADD PUSH2 0x721 JUMP JUMPDEST DUP5 SLOAD DUP4 MSTORE PUSH1 0x1 SWAP5 DUP6 ADD SWAP5 DUP8 SWAP5 POP PUSH1 0x20 SWAP1 SWAP4 ADD SWAP3 ADD PUSH2 0x5D3 JUMP JUMPDEST CALLVALUE PUSH2 0x19E JUMPI PUSH1 0x0 CALLDATASIZE PUSH1 0x3 NOT ADD SLT PUSH2 0x19E JUMPI PUSH1 0x0 SLOAD PUSH1 0x40 MLOAD PUSH1 0x1 PUSH1 0x1 PUSH1 0xA0 SHL SUB SWAP1 SWAP2 AND DUP2 MSTORE PUSH1 0x20 SWAP1 RETURN JUMPDEST CALLVALUE PUSH2 0x19E JUMPI PUSH1 0x20 CALLDATASIZE PUSH1 0x3 NOT ADD SLT PUSH2 0x19E JUMPI PUSH2 0x790 PUSH2 0x187C JUMP JUMPDEST PUSH1 0x4 CALLDATALOAD PUSH1 0x8 SSTORE STOP JUMPDEST CALLVALUE PUSH2 0x19E JUMPI PUSH1 0x0 CALLDATASIZE PUSH1 0x3 NOT ADD SLT PUSH2 0x19E JUMPI PUSH1 0x20 PUSH1 0x8 SLOAD PUSH1 0x40 MLOAD SWAP1 DUP2 MSTORE RETURN JUMPDEST CALLVALUE PUSH2 0x19E JUMPI PUSH1 0x0 CALLDATASIZE PUSH1 0x3 NOT ADD SLT PUSH2 0x19E JUMPI PUSH2 0x7CF PUSH2 0x187C JUMP JUMPDEST PUSH1 0x0 DUP1 SLOAD PUSH1 0x1 PUSH1 0x1 PUSH1 0xA0 SHL SUB NOT DUP2 AND DUP3 SSTORE PUSH1 0x1 PUSH1 0x1 PUSH1 0xA0 SHL SUB AND PUSH32 0x8BE0079C531659141344CD1FD0A4F28419497F9722A3DAAFE3B4186F6B6457E0 DUP3 DUP1 LOG3 STOP JUMPDEST CALLVALUE PUSH2 0x19E JUMPI PUSH2 0x81D CALLDATASIZE PUSH2 0x16D0 JUMP JUMPDEST SWAP1 PUSH2 0x82A DUP2 MLOAD ISZERO ISZERO PUSH2 0x1748 JUMP JUMPDEST PUSH1 0x40 MLOAD PUSH1 0x20 DUP2 ADD SWAP1 PUSH2 0x840 DUP2 PUSH2 0x25D DUP5 DUP7 PUSH2 0x1794 JUMP JUMPDEST MLOAD SWAP1 KECCAK256 DUP1 PUSH1 0x0 MSTORE PUSH1 0x3 PUSH1 0x20 MSTORE PUSH2 0x86E PUSH1 0x40 PUSH1 0x0 KECCAK256 SLOAD SWAP2 DUP3 PUSH1 0x0 MSTORE PUSH1 0x2 PUSH1 0x20 MSTORE PUSH1 0x1 PUSH1 0x40 PUSH1 0x0 KECCAK256 ADD SLOAD EQ PUSH2 0x17BF JUMP JUMPDEST PUSH1 0x0 MSTORE PUSH1 0x2 PUSH1 0x20 MSTORE PUSH2 0x891 PUSH1 0x1 DUP1 PUSH1 0xA0 SHL SUB PUSH1 0x2 PUSH1 0x40 PUSH1 0x0 KECCAK256 ADD SLOAD AND CALLER EQ PUSH2 0x17FE JUMP JUMPDEST DUP2 ISZERO PUSH2 0x8FE JUMPI PUSH1 0x40 MLOAD PUSH2 0x8AC DUP2 PUSH2 0x25D PUSH1 0x20 DUP3 ADD DUP1 SWAP6 PUSH2 0x1794 JUMP JUMPDEST MLOAD SWAP1 KECCAK256 PUSH1 0x0 MSTORE PUSH1 0x3 PUSH1 0x20 MSTORE PUSH1 0x40 PUSH1 0x0 KECCAK256 SLOAD DUP1 PUSH1 0x0 MSTORE PUSH1 0x2 PUSH1 0x20 MSTORE DUP2 PUSH1 0x3 PUSH1 0x40 PUSH1 0x0 KECCAK256 ADD SSTORE PUSH1 0x40 MLOAD SWAP2 DUP3 MSTORE PUSH32 0x21B7E77BDE1978B1B6512A0014E5E88D5B124503F18D2FB638C62CFFD6C6D4E4 PUSH1 0x20 CALLER SWAP4 LOG3 STOP JUMPDEST PUSH1 0x40 MLOAD PUSH3 0x461BCD PUSH1 0xE5 SHL DUP2 MSTORE PUSH1 0x20 PUSH1 0x4 DUP3 ADD MSTORE PUSH1 0x17 PUSH1 0x24 DUP3 ADD MSTORE PUSH32 0x4665652063616E6E6F742062652030206F72206C657373000000000000000000 PUSH1 0x44 DUP3 ADD MSTORE PUSH1 0x64 SWAP1 REVERT JUMPDEST PUSH1 0x40 CALLDATASIZE PUSH1 0x3 NOT ADD SLT PUSH2 0x19E JUMPI PUSH1 0x4 CALLDATALOAD PUSH8 0xFFFFFFFFFFFFFFFF DUP2 GT PUSH2 0x19E JUMPI PUSH2 0x96F SWAP1 CALLDATASIZE SWAP1 PUSH1 0x4 ADD PUSH2 0x1689 JUMP JUMPDEST PUSH1 0x24 CALLDATALOAD SWAP1 PUSH1 0x3 DUP3 LT ISZERO PUSH2 0x19E JUMPI PUSH1 0x2 PUSH1 0x1 SLOAD EQ PUSH2 0xE49 JUMPI PUSH1 0x2 PUSH1 0x1 SSTORE PUSH2 0x997 DUP2 MLOAD ISZERO ISZERO PUSH2 0x1748 JUMP JUMPDEST PUSH1 0x40 MLOAD PUSH2 0x9AC DUP2 PUSH2 0x25D PUSH1 0x20 DUP3 ADD DUP1 SWAP6 PUSH2 0x1794 JUMP JUMPDEST MLOAD SWAP1 KECCAK256 DUP1 PUSH1 0x0 MSTORE PUSH1 0x3 PUSH1 0x20 MSTORE PUSH1 0x40 PUSH1 0x0 KECCAK256 SLOAD PUSH1 0x0 MSTORE PUSH1 0x2 PUSH1 0x20 MSTORE PUSH1 0x40 PUSH1 0x0 KECCAK256 PUSH1 0x40 MLOAD SWAP1 PUSH2 0x9D8 DUP3 PUSH2 0x162F JUMP JUMPDEST DUP1 SLOAD DUP3 MSTORE PUSH1 0x1 DUP2 ADD SLOAD DUP1 PUSH1 0x20 DUP5 ADD MSTORE PUSH2 0xA21 DUP5 PUSH1 0x2 DUP5 ADD SLOAD SWAP3 PUSH1 0x80 PUSH1 0x3 PUSH1 0x40 DUP9 ADD SWAP7 PUSH1 0x1 DUP1 PUSH1 0xA0 SHL SUB DUP8 AND DUP9 MSTORE PUSH1 0xFF PUSH1 0x60 DUP11 ADD SWAP8 PUSH1 0xA0 SHR AND ISZERO ISZERO DUP8 MSTORE ADD SLOAD SWAP7 ADD SWAP6 DUP7 MSTORE EQ PUSH2 0x17BF JUMP JUMPDEST MLOAD ISZERO PUSH2 0xE0D JUMPI DUP4 PUSH2 0xDB5 JUMPI PUSH1 0x1 SWAP2 JUMPDEST MLOAD SWAP2 DUP1 DUP4 MUL SWAP3 DUP1 DUP5 DIV DUP3 EQ SWAP1 ISZERO OR ISZERO PUSH2 0xD63 JUMPI DUP3 CALLVALUE LT PUSH2 0xD79 JUMPI PUSH3 0x15180 DUP2 MUL SWAP1 DUP1 DUP3 DIV PUSH3 0x15180 EQ SWAP1 ISZERO OR ISZERO PUSH2 0xD63 JUMPI TIMESTAMP ADD SWAP2 DUP3 TIMESTAMP GT PUSH2 0xD63 JUMPI PUSH1 0x0 SWAP5 PUSH1 0x7 SLOAD SWAP3 PUSH2 0xA7B DUP5 PUSH2 0x183D JUMP JUMPDEST PUSH1 0x7 SSTORE PUSH1 0x40 MLOAD PUSH2 0xA8A DUP2 PUSH2 0x15FC JUMP JUMPDEST DUP5 DUP2 MSTORE PUSH1 0x6 PUSH1 0x20 DUP3 ADD SWAP2 CALLER DUP4 MSTORE PUSH1 0x40 DUP2 ADD DUP10 DUP2 MSTORE PUSH1 0x60 DUP3 ADD TIMESTAMP DUP2 MSTORE PUSH1 0x80 DUP4 ADD SWAP1 DUP11 DUP3 MSTORE PUSH1 0xA0 DUP5 ADD SWAP3 DUP10 DUP5 MSTORE PUSH1 0xC0 DUP6 ADD SWAP7 PUSH2 0xAC4 DUP11 DUP10 PUSH2 0x1730 JUMP JUMPDEST PUSH1 0xE0 DUP7 ADD SWAP15 DUP16 MSTORE DUP12 PUSH1 0x0 MSTORE PUSH1 0x4 PUSH1 0x20 MSTORE PUSH1 0x40 PUSH1 0x0 KECCAK256 SWAP6 MLOAD DUP7 SSTORE PUSH1 0x1 DUP1 PUSH1 0xA0 SHL SUB SWAP1 MLOAD AND PUSH1 0x1 DUP7 ADD SWAP1 PUSH1 0x1 DUP1 PUSH1 0xA0 SHL SUB AND PUSH12 0xFFFFFFFFFFFFFFFFFFFFFFFF PUSH1 0xA0 SHL DUP3 SLOAD AND OR SWAP1 SSTORE MLOAD PUSH1 0x2 DUP6 ADD SSTORE MLOAD PUSH1 0x3 DUP5 ADD SSTORE MLOAD PUSH1 0x4 DUP4 ADD SSTORE MLOAD PUSH1 0x5 DUP3 ADD SSTORE ADD SWAP1 MLOAD SWAP8 PUSH1 0x3 DUP10 LT ISZERO PUSH2 0xD4D JUMPI PUSH1 0x0 SWAP9 PUSH1 0xFF DUP1 NOT DUP5 SLOAD AND SWAP2 AND OR DUP3 SSTORE MLOAD PUSH1 0x2 DUP2 LT ISZERO PUSH2 0xD39 JUMPI PUSH2 0xFF00 DUP3 SLOAD SWAP2 PUSH1 0x8 SHL AND SWAP1 PUSH2 0xFF00 NOT AND OR SWAP1 SSTORE DUP6 DUP8 MSTORE PUSH1 0x5 PUSH1 0x20 MSTORE PUSH1 0x40 DUP8 KECCAK256 DUP1 SLOAD SWAP1 PUSH9 0x10000000000000000 DUP3 LT ISZERO PUSH2 0xD25 JUMPI PUSH2 0xB8F DUP3 PUSH2 0xBA6 SWAP3 PUSH1 0x1 DUP10 SWAP6 ADD DUP2 SSTORE PUSH2 0x1702 JUMP JUMPDEST DUP2 SWAP4 SWAP2 SLOAD SWAP1 PUSH1 0x3 SHL SWAP2 DUP3 SHL SWAP2 PUSH1 0x0 NOT SWAP1 SHL NOT AND OR SWAP1 JUMP JUMPDEST SWAP1 SSTORE DUP7 DUP1 DUP1 DUP1 DUP7 PUSH1 0x1 DUP1 PUSH1 0xA0 SHL SUB DUP7 MLOAD AND GAS CALL PUSH2 0xBC1 PUSH2 0x184C JUMP JUMPDEST POP ISZERO PUSH2 0xCD5 JUMPI PUSH1 0x1 DUP1 PUSH1 0xA0 SHL SUB SWAP1 MLOAD AND PUSH1 0x40 MLOAD SWAP1 DUP2 MSTORE DUP3 PUSH1 0x20 DUP3 ADD MSTORE PUSH32 0xBF6AFBAFFB3B955BEBBF43430BBF8EECB8D34FF86F293F592203AB5ED79C5268 PUSH1 0x40 CALLER SWAP3 LOG2 DUP2 CALLVALUE GT PUSH2 0xC5D JUMPI JUMPDEST PUSH2 0xC2A SWAP2 PUSH1 0x40 MLOAD SWAP5 TIMESTAMP DUP7 MSTORE PUSH1 0x20 DUP7 ADD MSTORE PUSH1 0x40 DUP6 ADD MSTORE PUSH1 0x60 DUP5 ADD SWAP1 PUSH2 0x15A0 JUMP JUMPDEST DUP4 PUSH1 0x80 DUP4 ADD MSTORE PUSH32 0xA05C3CAE17D36103443EE560CBD4353CC746CB3ED56577F19E85B033F1DE4791 PUSH1 0xA0 CALLER SWAP4 LOG4 PUSH1 0x1 DUP1 SSTORE DUP1 RETURN JUMPDEST DUP2 CALLVALUE SUB CALLVALUE DUP2 GT PUSH2 0xCC1 JUMPI DUP7 DUP1 DUP1 DUP1 SWAP4 CALLER GAS CALL PUSH2 0xC77 PUSH2 0x184C JUMP JUMPDEST POP PUSH2 0xC0B JUMPI PUSH1 0x40 MLOAD PUSH3 0x461BCD PUSH1 0xE5 SHL DUP2 MSTORE PUSH1 0x20 PUSH1 0x4 DUP3 ADD MSTORE PUSH1 0x1F PUSH1 0x24 DUP3 ADD MSTORE PUSH32 0x4661696C656420746F20726566756E6420657863657373207061796D656E7400 PUSH1 0x44 DUP3 ADD MSTORE PUSH1 0x64 SWAP1 REVERT JUMPDEST PUSH4 0x4E487B71 PUSH1 0xE0 SHL DUP8 MSTORE PUSH1 0x11 PUSH1 0x4 MSTORE PUSH1 0x24 DUP8 REVERT JUMPDEST PUSH1 0x40 MLOAD PUSH3 0x461BCD PUSH1 0xE5 SHL DUP2 MSTORE PUSH1 0x20 PUSH1 0x4 DUP3 ADD MSTORE PUSH1 0x22 PUSH1 0x24 DUP3 ADD MSTORE PUSH32 0x6661696C656420746F2073656E642066656520746F20646576696365206F776E PUSH1 0x44 DUP3 ADD MSTORE PUSH2 0x32B9 PUSH1 0xF1 SHL PUSH1 0x64 DUP3 ADD MSTORE PUSH1 0x84 SWAP1 REVERT JUMPDEST PUSH4 0x4E487B71 PUSH1 0xE0 SHL DUP10 MSTORE PUSH1 0x41 PUSH1 0x4 MSTORE PUSH1 0x24 DUP10 REVERT JUMPDEST PUSH4 0x4E487B71 PUSH1 0xE0 SHL DUP10 MSTORE PUSH1 0x21 PUSH1 0x4 MSTORE PUSH1 0x24 DUP10 REVERT JUMPDEST PUSH4 0x4E487B71 PUSH1 0xE0 SHL PUSH1 0x0 MSTORE PUSH1 0x21 PUSH1 0x4 MSTORE PUSH1 0x24 PUSH1 0x0 REVERT JUMPDEST PUSH4 0x4E487B71 PUSH1 0xE0 SHL PUSH1 0x0 MSTORE PUSH1 0x11 PUSH1 0x4 MSTORE PUSH1 0x24 PUSH1 0x0 REVERT JUMPDEST PUSH1 0x40 MLOAD PUSH3 0x461BCD PUSH1 0xE5 SHL DUP2 MSTORE PUSH1 0x20 PUSH1 0x4 DUP3 ADD MSTORE PUSH1 0x14 PUSH1 0x24 DUP3 ADD MSTORE PUSH20 0x125B9CDD59999A58DA595B9D081C185E5B595B9D PUSH1 0x62 SHL PUSH1 0x44 DUP3 ADD MSTORE PUSH1 0x64 SWAP1 REVERT JUMPDEST PUSH1 0x1 DUP5 SUB PUSH2 0xDC5 JUMPI PUSH1 0x7 SWAP2 PUSH2 0xA30 JUMP JUMPDEST PUSH1 0x2 DUP5 SUB PUSH2 0xDD5 JUMPI PUSH1 0x1E SWAP2 PUSH2 0xA30 JUMP JUMPDEST PUSH1 0x40 MLOAD PUSH3 0x461BCD PUSH1 0xE5 SHL DUP2 MSTORE PUSH1 0x20 PUSH1 0x4 DUP3 ADD MSTORE PUSH1 0x10 PUSH1 0x24 DUP3 ADD MSTORE PUSH16 0x24B73B30B634B210323AB930BA34B7B7 PUSH1 0x81 SHL PUSH1 0x44 DUP3 ADD MSTORE PUSH1 0x64 SWAP1 REVERT JUMPDEST PUSH1 0x40 MLOAD PUSH3 0x461BCD PUSH1 0xE5 SHL DUP2 MSTORE PUSH1 0x20 PUSH1 0x4 DUP3 ADD MSTORE PUSH1 0x14 PUSH1 0x24 DUP3 ADD MSTORE PUSH20 0x446576696365206973206E6F7420616374697665 PUSH1 0x60 SHL PUSH1 0x44 DUP3 ADD MSTORE PUSH1 0x64 SWAP1 REVERT JUMPDEST PUSH4 0x3EE5AEB5 PUSH1 0xE0 SHL PUSH1 0x0 MSTORE PUSH1 0x4 PUSH1 0x0 REVERT JUMPDEST CALLVALUE PUSH2 0x19E JUMPI PUSH1 0x20 CALLDATASIZE PUSH1 0x3 NOT ADD SLT PUSH2 0x19E JUMPI PUSH1 0x4 CALLDATALOAD PUSH1 0x0 MSTORE PUSH1 0x4 PUSH1 0x20 MSTORE PUSH1 0x40 PUSH1 0x0 KECCAK256 PUSH1 0x40 MLOAD PUSH2 0xE87 DUP2 PUSH2 0x15FC JUMP JUMPDEST DUP2 SLOAD DUP2 MSTORE PUSH1 0x1 DUP1 PUSH1 0xA0 SHL SUB PUSH1 0x1 DUP4 ADD SLOAD AND PUSH1 0x20 DUP3 ADD MSTORE PUSH1 0x2 DUP3 ADD SLOAD PUSH1 0x40 DUP3 ADD MSTORE PUSH1 0x3 DUP3 ADD SLOAD PUSH1 0x60 DUP3 ADD MSTORE PUSH2 0xEEF PUSH1 0xFF PUSH1 0xE0 PUSH1 0x6 PUSH1 0x4 DUP7 ADD SLOAD SWAP6 PUSH1 0x80 DUP7 ADD SWAP7 DUP8 MSTORE PUSH1 0x5 DUP2 ADD SLOAD PUSH1 0xA0 DUP8 ADD MSTORE ADD SLOAD SWAP4 PUSH2 0xEE3 DUP4 DUP7 AND PUSH1 0xC0 DUP4 ADD PUSH2 0x1730 JUMP JUMPDEST ADD SWAP3 PUSH1 0x8 SHR AND DUP3 PUSH2 0x173C JUMP JUMPDEST MLOAD SWAP1 PUSH1 0x2 DUP3 LT ISZERO PUSH2 0xD4D JUMPI PUSH1 0x20 SWAP2 ISZERO SWAP1 DUP2 PUSH2 0xF10 JUMPI JUMPDEST POP PUSH1 0x40 MLOAD SWAP1 ISZERO ISZERO DUP2 MSTORE RETURN JUMPDEST SWAP1 POP MLOAD TIMESTAMP LT DUP3 PUSH2 0xF05 JUMP JUMPDEST CALLVALUE PUSH2 0x19E JUMPI PUSH1 0x20 CALLDATASIZE PUSH1 0x3 NOT ADD SLT PUSH2 0x19E JUMPI PUSH1 0x4 CALLDATALOAD DUP1 PUSH1 0x0 MSTORE PUSH1 0x4 PUSH1 0x20 MSTORE PUSH1 0x40 PUSH1 0x0 KECCAK256 PUSH1 0x6 DUP2 ADD SWAP1 PUSH1 0xFF DUP3 SLOAD PUSH1 0x8 SHR AND PUSH1 0x2 DUP2 LT ISZERO PUSH2 0xD4D JUMPI PUSH2 0x10D8 JUMPI PUSH1 0x4 DUP2 ADD SLOAD TIMESTAMP GT ISZERO PUSH2 0x1089 JUMPI PUSH1 0x2 DUP2 ADD SLOAD DUP3 SLOAD PUSH2 0xFF00 NOT AND PUSH2 0x100 OR SWAP1 SWAP3 SSTORE PUSH1 0x1 ADD SLOAD PUSH1 0x1 PUSH1 0x1 PUSH1 0xA0 SHL SUB AND DUP3 PUSH32 0x9656891580EAA37C2F3F563B0BFD328350A3B08B70DDA0D9C2CB9995ADA7867C PUSH1 0x0 DUP1 LOG3 DUP2 PUSH1 0x0 MSTORE PUSH1 0x4 PUSH1 0x20 MSTORE PUSH1 0x0 PUSH1 0x6 PUSH1 0x40 DUP3 KECCAK256 DUP3 DUP2 SSTORE DUP3 PUSH1 0x1 DUP3 ADD SSTORE DUP3 PUSH1 0x2 DUP3 ADD SSTORE DUP3 PUSH1 0x3 DUP3 ADD SSTORE DUP3 PUSH1 0x4 DUP3 ADD SSTORE DUP3 PUSH1 0x5 DUP3 ADD SSTORE ADD SSTORE PUSH1 0x0 MSTORE PUSH1 0x5 PUSH1 0x20 MSTORE PUSH1 0x40 PUSH1 0x0 KECCAK256 SWAP1 PUSH1 0x0 JUMPDEST DUP3 SLOAD DUP1 DUP3 LT ISZERO PUSH2 0x1B JUMPI DUP3 PUSH2 0x1003 DUP4 DUP7 PUSH2 0x1702 JUMP JUMPDEST SWAP1 SLOAD SWAP1 PUSH1 0x3 SHL SHR EQ PUSH2 0x1018 JUMPI POP PUSH1 0x1 ADD PUSH2 0xFEE JUMP JUMPDEST SWAP1 SWAP2 POP PUSH1 0x0 NOT DUP2 ADD SWAP1 DUP2 GT PUSH2 0xD63 JUMPI PUSH2 0xB8F PUSH2 0x1037 PUSH2 0x1045 SWAP3 DUP6 PUSH2 0x1702 JUMP JUMPDEST SWAP1 SLOAD SWAP1 PUSH1 0x3 SHL SHR SWAP3 DUP5 PUSH2 0x1702 JUMP JUMPDEST SWAP1 SSTORE DUP1 SLOAD DUP1 ISZERO PUSH2 0x1073 JUMPI PUSH1 0x0 NOT ADD SWAP1 PUSH2 0x105E DUP3 DUP3 PUSH2 0x1702 JUMP JUMPDEST DUP2 SLOAD SWAP1 PUSH1 0x0 NOT SWAP1 PUSH1 0x3 SHL SHL NOT AND SWAP1 SSTORE SSTORE PUSH1 0x0 DUP1 RETURN JUMPDEST PUSH4 0x4E487B71 PUSH1 0xE0 SHL PUSH1 0x0 MSTORE PUSH1 0x31 PUSH1 0x4 MSTORE PUSH1 0x24 PUSH1 0x0 REVERT JUMPDEST PUSH1 0x40 MLOAD PUSH3 0x461BCD PUSH1 0xE5 SHL DUP2 MSTORE PUSH1 0x20 PUSH1 0x4 DUP3 ADD MSTORE PUSH1 0x21 PUSH1 0x24 DUP3 ADD MSTORE PUSH32 0x537562736372697074696F6E20706572696F64206E6F7420656E646564207965 PUSH1 0x44 DUP3 ADD MSTORE PUSH1 0x1D PUSH1 0xFA SHL PUSH1 0x64 DUP3 ADD MSTORE PUSH1 0x84 SWAP1 REVERT JUMPDEST PUSH1 0x40 MLOAD PUSH3 0x461BCD PUSH1 0xE5 SHL DUP2 MSTORE PUSH1 0x20 PUSH1 0x4 DUP3 ADD MSTORE PUSH1 0x1A PUSH1 0x24 DUP3 ADD MSTORE PUSH32 0x537562736372697074696F6E206973206E6F7420616374697665000000000000 PUSH1 0x44 DUP3 ADD MSTORE PUSH1 0x64 SWAP1 REVERT JUMPDEST CALLVALUE PUSH2 0x19E JUMPI PUSH1 0x20 CALLDATASIZE PUSH1 0x3 NOT ADD SLT PUSH2 0x19E JUMPI PUSH1 0x4 CALLDATALOAD PUSH8 0xFFFFFFFFFFFFFFFF DUP2 GT PUSH2 0x19E JUMPI PUSH2 0x114E SWAP1 CALLDATASIZE SWAP1 PUSH1 0x4 ADD PUSH2 0x1689 JUMP JUMPDEST PUSH2 0x115A DUP2 MLOAD ISZERO ISZERO PUSH2 0x1748 JUMP JUMPDEST PUSH1 0x40 MLOAD PUSH2 0x116F DUP2 PUSH2 0x25D PUSH1 0x20 DUP3 ADD DUP1 SWAP6 PUSH2 0x1794 JUMP JUMPDEST MLOAD SWAP1 KECCAK256 DUP1 PUSH1 0x0 MSTORE PUSH1 0x3 PUSH1 0x20 MSTORE PUSH1 0x40 PUSH1 0x0 KECCAK256 SLOAD PUSH1 0x0 MSTORE PUSH1 0x2 PUSH1 0x20 MSTORE PUSH1 0x40 PUSH1 0x0 KECCAK256 PUSH2 0x1229 PUSH1 0x40 MLOAD PUSH2 0x119D DUP2 PUSH2 0x162F JUMP JUMPDEST DUP3 SLOAD DUP2 MSTORE PUSH1 0x1 DUP4 ADD SLOAD DUP1 PUSH1 0x20 DUP4 ADD MSTORE PUSH1 0x2 DUP5 ADD SLOAD SWAP2 PUSH2 0x11E7 DUP7 PUSH1 0x3 PUSH1 0x40 DUP5 ADD SWAP8 PUSH1 0x1 DUP1 PUSH1 0xA0 SHL SUB DUP8 AND DUP10 MSTORE PUSH1 0xFF PUSH1 0x60 DUP7 ADD SWAP8 PUSH1 0xA0 SHR AND ISZERO ISZERO DUP8 MSTORE ADD SLOAD SWAP4 PUSH1 0x80 DUP5 ADD SWAP5 DUP6 MSTORE EQ PUSH2 0x17BF JUMP JUMPDEST MLOAD SWAP4 MLOAD SWAP2 MLOAD SWAP1 MLOAD PUSH1 0x40 DUP1 MLOAD SWAP6 DUP7 MSTORE PUSH1 0x20 DUP7 ADD SWAP7 SWAP1 SWAP7 MSTORE PUSH1 0x1 PUSH1 0x1 PUSH1 0xA0 SHL SUB SWAP1 SWAP3 AND SWAP5 DUP5 ADD SWAP5 SWAP1 SWAP5 MSTORE SWAP3 ISZERO ISZERO PUSH1 0x60 DUP4 ADD MSTORE PUSH1 0x80 DUP3 ADD SWAP3 SWAP1 SWAP3 MSTORE SWAP1 DUP2 SWAP1 PUSH1 0xA0 DUP3 ADD SWAP1 JUMP JUMPDEST SUB SWAP1 RETURN JUMPDEST CALLVALUE PUSH2 0x19E JUMPI PUSH1 0x20 CALLDATASIZE PUSH1 0x3 NOT ADD SLT PUSH2 0x19E JUMPI PUSH1 0x4 CALLDATALOAD PUSH1 0x0 MSTORE PUSH1 0x4 PUSH1 0x20 MSTORE PUSH1 0x40 PUSH1 0x0 KECCAK256 DUP1 SLOAD SWAP1 PUSH2 0x1229 PUSH1 0x1 DUP1 PUSH1 0xA0 SHL SUB PUSH1 0x1 DUP4 ADD SLOAD AND SWAP2 PUSH1 0x2 DUP2 ADD SLOAD SWAP4 PUSH1 0x3 DUP3 ADD SLOAD SWAP2 PUSH1 0x4 DUP2 ADD SLOAD PUSH1 0x6 PUSH1 0x5 DUP4 ADD SLOAD SWAP3 ADD SLOAD SWAP4 PUSH1 0x40 MLOAD SWAP8 DUP9 SWAP8 PUSH1 0xFF DUP1 DUP9 PUSH1 0x8 SHR AND SWAP8 AND SWAP6 DUP10 PUSH2 0x15AD JUMP JUMPDEST CALLVALUE PUSH2 0x19E JUMPI PUSH1 0x40 CALLDATASIZE PUSH1 0x3 NOT ADD SLT PUSH2 0x19E JUMPI PUSH1 0x4 CALLDATALOAD PUSH8 0xFFFFFFFFFFFFFFFF DUP2 GT PUSH2 0x19E JUMPI PUSH2 0x12C6 SWAP1 CALLDATASIZE SWAP1 PUSH1 0x4 ADD PUSH2 0x1689 JUMP JUMPDEST PUSH1 0x24 CALLDATALOAD DUP1 ISZERO ISZERO SWAP2 DUP3 DUP3 SUB PUSH2 0x19E JUMPI PUSH2 0x12E0 DUP2 MLOAD ISZERO ISZERO PUSH2 0x1748 JUMP JUMPDEST PUSH1 0x40 MLOAD PUSH1 0x20 DUP2 ADD SWAP1 PUSH2 0x12F6 DUP2 PUSH2 0x25D DUP5 DUP7 PUSH2 0x1794 JUMP JUMPDEST MLOAD SWAP1 KECCAK256 DUP1 PUSH1 0x0 MSTORE PUSH1 0x3 PUSH1 0x20 MSTORE PUSH2 0x1324 PUSH1 0x40 PUSH1 0x0 KECCAK256 SLOAD SWAP2 DUP3 PUSH1 0x0 MSTORE PUSH1 0x2 PUSH1 0x20 MSTORE PUSH1 0x1 PUSH1 0x40 PUSH1 0x0 KECCAK256 ADD SLOAD EQ PUSH2 0x17BF JUMP JUMPDEST PUSH1 0x0 MSTORE PUSH1 0x2 PUSH1 0x20 MSTORE PUSH2 0x1347 PUSH1 0x1 DUP1 PUSH1 0xA0 SHL SUB PUSH1 0x2 PUSH1 0x40 PUSH1 0x0 KECCAK256 ADD SLOAD AND CALLER EQ PUSH2 0x17FE JUMP JUMPDEST PUSH1 0x40 MLOAD PUSH2 0x135C DUP2 PUSH2 0x25D PUSH1 0x20 DUP3 ADD DUP1 SWAP6 PUSH2 0x1794 JUMP JUMPDEST MLOAD SWAP1 KECCAK256 PUSH1 0x0 MSTORE PUSH1 0x3 PUSH1 0x20 MSTORE PUSH1 0x40 PUSH1 0x0 KECCAK256 SLOAD SWAP1 DUP2 PUSH1 0x0 MSTORE PUSH1 0x2 PUSH1 0x20 MSTORE DUP3 PUSH1 0xFF PUSH1 0x2 PUSH1 0x40 PUSH1 0x0 KECCAK256 ADD SLOAD PUSH1 0xA0 SHR AND ISZERO ISZERO EQ PUSH2 0x13E9 JUMPI PUSH1 0x0 DUP3 DUP2 MSTORE PUSH1 0x2 PUSH1 0x20 DUP2 SWAP1 MSTORE PUSH1 0x40 SWAP1 SWAP2 KECCAK256 ADD DUP1 SLOAD PUSH1 0xFF PUSH1 0xA0 SHL NOT AND SWAP2 ISZERO ISZERO PUSH1 0xA0 SHL PUSH1 0xFF PUSH1 0xA0 SHL AND SWAP2 SWAP1 SWAP2 OR SWAP1 SSTORE PUSH1 0x40 MLOAD SWAP2 DUP3 MSTORE PUSH32 0x110F85C5B3D225E011C0343E0461CB8F14EC3498C0A18E07C0A366773CEB66B2 PUSH1 0x20 CALLER SWAP4 LOG3 STOP JUMPDEST PUSH1 0x40 MLOAD PUSH3 0x461BCD PUSH1 0xE5 SHL DUP2 MSTORE PUSH1 0x20 PUSH1 0x4 DUP3 ADD MSTORE PUSH1 0x13 PUSH1 0x24 DUP3 ADD MSTORE PUSH19 0x4E6F206368616E676520696E20737461747573 PUSH1 0x68 SHL PUSH1 0x44 DUP3 ADD MSTORE PUSH1 0x64 SWAP1 REVERT JUMPDEST CALLVALUE PUSH2 0x19E JUMPI PUSH1 0x20 CALLDATASIZE PUSH1 0x3 NOT ADD SLT PUSH2 0x19E JUMPI PUSH1 0x4 CALLDATALOAD PUSH1 0x0 MSTORE PUSH1 0x4 PUSH1 0x20 MSTORE PUSH1 0x40 PUSH1 0x0 KECCAK256 PUSH1 0x40 MLOAD SWAP1 PUSH2 0x1452 DUP3 PUSH2 0x15FC JUMP JUMPDEST DUP1 SLOAD DUP3 MSTORE PUSH1 0x1 DUP1 PUSH1 0xA0 SHL SUB PUSH1 0x1 DUP3 ADD SLOAD AND SWAP1 PUSH1 0x20 DUP4 ADD SWAP2 DUP3 MSTORE PUSH1 0x2 DUP2 ADD SLOAD SWAP3 PUSH1 0x40 DUP2 ADD SWAP4 DUP5 MSTORE PUSH1 0x3 DUP3 ADD SLOAD SWAP2 PUSH1 0x60 DUP3 ADD SWAP3 DUP4 MSTORE PUSH1 0x4 DUP2 ADD SLOAD SWAP2 PUSH1 0x80 DUP2 ADD SWAP3 DUP4 MSTORE PUSH1 0x6 PUSH1 0x5 DUP4 ADD SLOAD SWAP3 PUSH1 0xA0 DUP4 ADD SWAP4 DUP5 MSTORE ADD SLOAD SWAP2 PUSH1 0xC0 DUP3 ADD SWAP2 PUSH2 0x14B6 PUSH1 0xFF DUP6 AND DUP5 PUSH2 0x1730 JUMP JUMPDEST PUSH2 0x14CA PUSH1 0xFF PUSH1 0xE0 DUP4 ADD SWAP6 PUSH1 0x8 SHR AND DUP6 PUSH2 0x173C JUMP JUMPDEST MLOAD SWAP6 MLOAD SWAP7 MLOAD SWAP5 MLOAD SWAP4 MLOAD SWAP1 MLOAD SWAP2 MLOAD PUSH1 0x1 PUSH1 0x1 PUSH1 0xA0 SHL SUB SWAP1 SWAP8 AND SWAP7 SWAP3 PUSH1 0x3 DUP5 LT ISZERO PUSH2 0xD4D JUMPI MLOAD SWAP4 PUSH1 0x2 DUP6 LT ISZERO PUSH2 0xD4D JUMPI PUSH2 0x1229 SWAP6 PUSH1 0x40 MLOAD SWAP9 DUP10 SWAP9 DUP10 PUSH2 0x15AD JUMP JUMPDEST CALLVALUE PUSH2 0x19E JUMPI PUSH1 0x20 CALLDATASIZE PUSH1 0x3 NOT ADD SLT PUSH2 0x19E JUMPI PUSH1 0x4 CALLDATALOAD PUSH1 0x0 MSTORE PUSH1 0x3 PUSH1 0x20 MSTORE PUSH1 0x20 PUSH1 0x40 PUSH1 0x0 KECCAK256 SLOAD PUSH1 0x40 MLOAD SWAP1 DUP2 MSTORE RETURN JUMPDEST CALLVALUE PUSH2 0x19E JUMPI PUSH1 0x20 CALLDATASIZE PUSH1 0x3 NOT ADD SLT PUSH2 0x19E JUMPI PUSH1 0x4 CALLDATALOAD PUSH1 0x0 SWAP1 DUP2 MSTORE PUSH1 0x2 PUSH1 0x20 DUP2 DUP2 MSTORE PUSH1 0x40 SWAP3 DUP4 SWAP1 KECCAK256 DUP1 SLOAD PUSH1 0x1 DUP3 ADD SLOAD SWAP4 DUP3 ADD SLOAD PUSH1 0x3 SWAP1 SWAP3 ADD SLOAD SWAP1 DUP7 MSTORE SWAP2 DUP6 ADD SWAP3 SWAP1 SWAP3 MSTORE PUSH1 0x1 PUSH1 0x1 PUSH1 0xA0 SHL SUB DUP3 AND SWAP3 DUP5 ADD SWAP3 SWAP1 SWAP3 MSTORE PUSH1 0xFF PUSH1 0xA0 SWAP2 DUP3 SHR AND ISZERO ISZERO PUSH1 0x60 DUP5 ADD MSTORE PUSH1 0x80 DUP4 ADD SWAP2 SWAP1 SWAP2 MSTORE SWAP1 RETURN JUMPDEST SWAP1 PUSH1 0x3 DUP3 LT ISZERO PUSH2 0xD4D JUMPI MSTORE JUMP JUMPDEST SWAP6 SWAP3 PUSH2 0x15ED SWAP6 SWAP3 SWAP10 SWAP9 SWAP8 SWAP5 SWAP2 SWAP10 PUSH2 0x100 DUP9 ADD SWAP11 DUP9 MSTORE PUSH1 0x1 DUP1 PUSH1 0xA0 SHL SUB AND PUSH1 0x20 DUP9 ADD MSTORE PUSH1 0x40 DUP8 ADD MSTORE PUSH1 0x60 DUP7 ADD MSTORE PUSH1 0x80 DUP6 ADD MSTORE PUSH1 0xA0 DUP5 ADD MSTORE PUSH1 0xC0 DUP4 ADD SWAP1 PUSH2 0x15A0 JUMP JUMPDEST PUSH1 0x2 DUP3 LT ISZERO PUSH2 0xD4D JUMPI PUSH1 0xE0 ADD MSTORE JUMP JUMPDEST PUSH2 0x100 DUP2 ADD SWAP1 DUP2 LT PUSH8 0xFFFFFFFFFFFFFFFF DUP3 GT OR PUSH2 0x1619 JUMPI PUSH1 0x40 MSTORE JUMP JUMPDEST PUSH4 0x4E487B71 PUSH1 0xE0 SHL PUSH1 0x0 MSTORE PUSH1 0x41 PUSH1 0x4 MSTORE PUSH1 0x24 PUSH1 0x0 REVERT JUMPDEST PUSH1 0xA0 DUP2 ADD SWAP1 DUP2 LT PUSH8 0xFFFFFFFFFFFFFFFF DUP3 GT OR PUSH2 0x1619 JUMPI PUSH1 0x40 MSTORE JUMP JUMPDEST SWAP1 PUSH1 0x1F DUP1 NOT SWAP2 ADD AND DUP2 ADD SWAP1 DUP2 LT PUSH8 0xFFFFFFFFFFFFFFFF DUP3 GT OR PUSH2 0x1619 JUMPI PUSH1 0x40 MSTORE JUMP JUMPDEST PUSH8 0xFFFFFFFFFFFFFFFF DUP2 GT PUSH2 0x1619 JUMPI PUSH1 0x1F ADD PUSH1 0x1F NOT AND PUSH1 0x20 ADD SWAP1 JUMP JUMPDEST DUP2 PUSH1 0x1F DUP3 ADD SLT ISZERO PUSH2 0x19E JUMPI DUP1 CALLDATALOAD SWAP1 PUSH2 0x16A0 DUP3 PUSH2 0x166D JUMP JUMPDEST SWAP3 PUSH2 0x16AE PUSH1 0x40 MLOAD SWAP5 DUP6 PUSH2 0x164B JUMP JUMPDEST DUP3 DUP5 MSTORE PUSH1 0x20 DUP4 DUP4 ADD ADD GT PUSH2 0x19E JUMPI DUP2 PUSH1 0x0 SWAP3 PUSH1 0x20 DUP1 SWAP4 ADD DUP4 DUP7 ADD CALLDATACOPY DUP4 ADD ADD MSTORE SWAP1 JUMP JUMPDEST PUSH1 0x40 PUSH1 0x3 NOT DUP3 ADD SLT PUSH2 0x19E JUMPI PUSH1 0x4 CALLDATALOAD SWAP1 PUSH8 0xFFFFFFFFFFFFFFFF DUP3 GT PUSH2 0x19E JUMPI PUSH2 0x16FB SWAP2 PUSH1 0x4 ADD PUSH2 0x1689 JUMP JUMPDEST SWAP1 PUSH1 0x24 CALLDATALOAD SWAP1 JUMP JUMPDEST DUP1 SLOAD DUP3 LT ISZERO PUSH2 0x171A JUMPI PUSH1 0x0 MSTORE PUSH1 0x20 PUSH1 0x0 KECCAK256 ADD SWAP1 PUSH1 0x0 SWAP1 JUMP JUMPDEST PUSH4 0x4E487B71 PUSH1 0xE0 SHL PUSH1 0x0 MSTORE PUSH1 0x32 PUSH1 0x4 MSTORE PUSH1 0x24 PUSH1 0x0 REVERT JUMPDEST PUSH1 0x3 DUP3 LT ISZERO PUSH2 0xD4D JUMPI MSTORE JUMP JUMPDEST PUSH1 0x2 DUP3 LT ISZERO PUSH2 0xD4D JUMPI MSTORE JUMP JUMPDEST ISZERO PUSH2 0x174F JUMPI JUMP JUMPDEST PUSH1 0x40 MLOAD PUSH3 0x461BCD PUSH1 0xE5 SHL DUP2 MSTORE PUSH1 0x20 PUSH1 0x4 DUP3 ADD MSTORE PUSH1 0x19 PUSH1 0x24 DUP3 ADD MSTORE PUSH32 0x4465766963652049442063616E6E6F7420626520656D70747900000000000000 PUSH1 0x44 DUP3 ADD MSTORE PUSH1 0x64 SWAP1 REVERT JUMPDEST SWAP1 DUP2 MLOAD SWAP2 PUSH1 0x0 JUMPDEST DUP4 DUP2 LT PUSH2 0x17AC JUMPI POP POP ADD PUSH1 0x0 DUP2 MSTORE SWAP1 JUMP JUMPDEST DUP1 PUSH1 0x20 DUP1 SWAP3 DUP5 ADD ADD MLOAD DUP2 DUP6 ADD MSTORE ADD PUSH2 0x179B JUMP JUMPDEST ISZERO PUSH2 0x17C6 JUMPI JUMP JUMPDEST PUSH1 0x40 MLOAD PUSH3 0x461BCD PUSH1 0xE5 SHL DUP2 MSTORE PUSH1 0x20 PUSH1 0x4 DUP3 ADD MSTORE PUSH1 0x10 PUSH1 0x24 DUP3 ADD MSTORE PUSH16 0x11195D9A58D9481B9BDD08199BDD5B99 PUSH1 0x82 SHL PUSH1 0x44 DUP3 ADD MSTORE PUSH1 0x64 SWAP1 REVERT JUMPDEST ISZERO PUSH2 0x1805 JUMPI JUMP JUMPDEST PUSH1 0x40 MLOAD PUSH3 0x461BCD PUSH1 0xE5 SHL DUP2 MSTORE PUSH1 0x20 PUSH1 0x4 DUP3 ADD MSTORE PUSH1 0x10 PUSH1 0x24 DUP3 ADD MSTORE PUSH16 0x2737BA103232BB34B1B29037BBB732B9 PUSH1 0x81 SHL PUSH1 0x44 DUP3 ADD MSTORE PUSH1 0x64 SWAP1 REVERT JUMPDEST PUSH1 0x0 NOT DUP2 EQ PUSH2 0xD63 JUMPI PUSH1 0x1 ADD SWAP1 JUMP JUMPDEST RETURNDATASIZE ISZERO PUSH2 0x1877 JUMPI RETURNDATASIZE SWAP1 PUSH2 0x185D DUP3 PUSH2 0x166D JUMP JUMPDEST SWAP2 PUSH2 0x186B PUSH1 0x40 MLOAD SWAP4 DUP5 PUSH2 0x164B JUMP JUMPDEST DUP3 MSTORE RETURNDATASIZE PUSH1 0x0 PUSH1 0x20 DUP5 ADD RETURNDATACOPY JUMP JUMPDEST PUSH1 0x60 SWAP1 JUMP JUMPDEST PUSH1 0x0 SLOAD PUSH1 0x1 PUSH1 0x1 PUSH1 0xA0 SHL SUB AND CALLER SUB PUSH2 0x1890 JUMPI JUMP JUMPDEST PUSH4 0x118CDAA7 PUSH1 0xE0 SHL PUSH1 0x0 MSTORE CALLER PUSH1 0x4 MSTORE PUSH1 0x24 PUSH1 0x0 REVERT INVALID LOG2 PUSH5 0x6970667358 0x22 SLT KECCAK256 0x24 BALANCE BLOBBASEFEE PUSH10 0x1396F6E7A7E0BAB2E5A1 XOR 0xD3 0xC0 MSIZE DUP12 0xAC 0xE8 PUSH23 0x37CFC3C53CEB09C9843464736F6C634300081C00330000 "
        },
        "methodIdentifiers": {
          "changeDeviceStatus(string,bool)": "2a00706a",
          "deviceIdToHash(bytes32)": "19082e0b",
          "deviceSubscriptions(bytes32,uint256)": "cdb07754",
          "devices(uint256)": "10ff8e31",
          "expireSubscription(uint256)": "493a7576",
          "fundContract()": "bd097e21",
          "getDeviceByStringID(string)": "45cfb937",
          "getSubscriptionById(uint256)": "20062396",
          "isSubscriptionActive(uint256)": "57e2c0f5",
          "nextDeviceId()": "eb780f42",
          "nextSubscriptionId()": "da58935f",
          "owner()": "8da5cb5b",
          "registerDevice(string,uint256)": "c5574bd3",
          "registrationReward()": "865909f6",
          "removeDevice(string)": "afc3afa6",
          "renounceOwnership()": "715018a6",
          "setRegistrationReward(uint256)": "8a74e6d2",
          "subscribe(string,uint8)": "6895b290",
          "subscriptions(uint256)": "2d5bbf60",
          "transferOwnership(address)": "f2fde38b",
          "updateDevice(string,uint256)": "6c27a46e"
        }
      }
    }
  }
}