{
  "_format": "hh-sol-artifact-1",
  "contractName": "DeviceUsageManager",
  "sourceName": "contracts/DeviceServiceManager.sol",
  "abi": [
    {
      "inputs": [
        {
          "internalType": "address",
          "name": "initialOwner",
          "type": "address"
        }
      ],
      "stateMutability": "nonpayable",
      "type": "constructor"
    },
    {
      "inputs": [
        {
          "internalType": "address",
          "name": "owner",
          "type": "address"
        }
      ],
      "name": "OwnableInvalidOwner",
      "type": "error"
    },
    {
      "inputs": [
        {
          "internalType": "address",
          "name": "account",
          "type": "address"
        }
      ],
      "name": "OwnableUnauthorizedAccount",
      "type": "error"
    },
    {
      "inputs": [],
      "name": "ReentrancyGuardReentrantCall",
      "type": "error"
    },
    {
      "anonymous": false,
      "inputs": [
        {
          "indexed": true,
          "internalType": "address",
          "name": "deviceAddress",
          "type": "address"
        },
        {
          "indexed": false,
          "internalType": "uint256",
          "name": "timestamp",
          "type": "uint256"
        }
      ],
      "name": "DeviceHeartbeat",
      "type": "event"
    },
    {
      "anonymous": false,
      "inputs": [
        {
          "indexed": true,
          "internalType": "address",
          "name": "deviceAddress",
          "type": "address"
        },
        {
          "indexed": false,
          "internalType": "string",
          "name": "newDeviceType",
          "type": "string"
        },
        {
          "indexed": false,
          "internalType": "uint256",
          "name": "fee",
          "type": "uint256"
        }
      ],
      "name": "DeviceInfoUpdated",
      "type": "event"
    },
    {
      "anonymous": false,
      "inputs": [
        {
          "indexed": true,
          "internalType": "address",
          "name": "deviceAddress",
          "type": "address"
        },
        {
          "indexed": true,
          "internalType": "address",
          "name": "deviceOwner",
          "type": "address"
        },
        {
          "indexed": false,
          "internalType": "string",
          "name": "deviceType",
          "type": "string"
        },
        {
          "indexed": false,
          "internalType": "bytes32",
          "name": "publicKey",
          "type": "bytes32"
        },
        {
          "indexed": false,
          "internalType": "uint256",
          "name": "fee",
          "type": "uint256"
        }
      ],
      "name": "DeviceRegistered",
      "type": "event"
    },
    {
      "anonymous": false,
      "inputs": [
        {
          "indexed": true,
          "internalType": "address",
          "name": "deviceAddress",
          "type": "address"
        }
      ],
      "name": "DeviceRemoved",
      "type": "event"
    },
    {
      "anonymous": false,
      "inputs": [
        {
          "indexed": true,
          "internalType": "address",
          "name": "deviceAddress",
          "type": "address"
        },
        {
          "indexed": false,
          "internalType": "bool",
          "name": "newStatus",
          "type": "bool"
        }
      ],
      "name": "DeviceStatusUpdated",
      "type": "event"
    },
    {
      "anonymous": false,
      "inputs": [
        {
          "indexed": true,
          "internalType": "address",
          "name": "previousOwner",
          "type": "address"
        },
        {
          "indexed": true,
          "internalType": "address",
          "name": "newOwner",
          "type": "address"
        }
      ],
      "name": "OwnershipTransferred",
      "type": "event"
    },
    {
      "anonymous": false,
      "inputs": [
        {
          "indexed": true,
          "internalType": "address",
          "name": "deviceAddress",
          "type": "address"
        },
        {
          "indexed": false,
          "internalType": "uint256",
          "name": "amount",
          "type": "uint256"
        }
      ],
      "name": "RegistrationRewardPaid",
      "type": "event"
    },
    {
      "anonymous": false,
      "inputs": [
        {
          "indexed": true,
          "internalType": "bytes32",
          "name": "sessionId",
          "type": "bytes32"
        },
        {
          "indexed": true,
          "internalType": "address",
          "name": "user",
          "type": "address"
        },
        {
          "indexed": true,
          "internalType": "address",
          "name": "deviceAddress",
          "type": "address"
        },
        {
          "indexed": false,
          "internalType": "uint256",
          "name": "endTime",
          "type": "uint256"
        },
        {
          "indexed": false,
          "internalType": "uint256",
          "name": "fee",
          "type": "uint256"
        }
      ],
      "name": "SessionEnded",
      "type": "event"
    },
    {
      "anonymous": false,
      "inputs": [
        {
          "indexed": true,
          "internalType": "bytes32",
          "name": "sessionId",
          "type": "bytes32"
        },
        {
          "indexed": true,
          "internalType": "address",
          "name": "user",
          "type": "address"
        },
        {
          "indexed": true,
          "internalType": "address",
          "name": "deviceAddress",
          "type": "address"
        },
        {
          "indexed": false,
          "internalType": "uint256",
          "name": "startTime",
          "type": "uint256"
        },
        {
          "indexed": false,
          "internalType": "uint256",
          "name": "fee",
          "type": "uint256"
        }
      ],
      "name": "SessionStarted",
      "type": "event"
    },
    {
      "anonymous": false,
      "inputs": [
        {
          "indexed": true,
          "internalType": "address",
          "name": "deviceOwner",
          "type": "address"
        },
        {
          "indexed": true,
          "internalType": "address",
          "name": "deviceAddress",
          "type": "address"
        },
        {
          "indexed": false,
          "internalType": "uint256",
          "name": "amount",
          "type": "uint256"
        }
      ],
      "name": "Withdraw",
      "type": "event"
    },
    {
      "anonymous": false,
      "inputs": [
        {
          "indexed": true,
          "internalType": "address",
          "name": "deviceOwner",
          "type": "address"
        },
        {
          "indexed": false,
          "internalType": "uint256",
          "name": "amount",
          "type": "uint256"
        }
      ],
      "name": "WithdrawAll",
      "type": "event"
    },
    {
      "inputs": [
        {
          "internalType": "address",
          "name": "",
          "type": "address"
        }
      ],
      "name": "deviceActiveSession",
      "outputs": [
        {
          "internalType": "bytes32",
          "name": "",
          "type": "bytes32"
        }
      ],
      "stateMutability": "view",
      "type": "function"
    },
    {
      "inputs": [
        {
          "internalType": "address",
          "name": "",
          "type": "address"
        }
      ],
      "name": "devices",
      "outputs": [
        {
          "internalType": "address",
          "name": "deviceOwner",
          "type": "address"
        },
        {
          "internalType": "bool",
          "name": "isActive",
          "type": "bool"
        },
        {
          "internalType": "string",
          "name": "deviceType",
          "type": "string"
        },
        {
          "internalType": "uint256",
          "name": "lastSeen",
          "type": "uint256"
        },
        {
          "internalType": "bytes32",
          "name": "publicKey",
          "type": "bytes32"
        },
        {
          "internalType": "uint256",
          "name": "fee",
          "type": "uint256"
        }
      ],
      "stateMutability": "view",
      "type": "function"
    },
    {
      "inputs": [
        {
          "internalType": "bytes32",
          "name": "_sessionId",
          "type": "bytes32"
        }
      ],
      "name": "endSession",
      "outputs": [],
      "stateMutability": "nonpayable",
      "type": "function"
    },
    {
      "inputs": [],
      "name": "fundContract",
      "outputs": [],
      "stateMutability": "payable",
      "type": "function"
    },
    {
      "inputs": [
        {
          "internalType": "address",
          "name": "_deviceAddress",
          "type": "address"
        }
      ],
      "name": "getActiveSession",
      "outputs": [
        {
          "internalType": "bytes32",
          "name": "",
          "type": "bytes32"
        }
      ],
      "stateMutability": "view",
      "type": "function"
    },
    {
      "inputs": [],
      "name": "getAllDevices",
      "outputs": [
        {
          "internalType": "address[]",
          "name": "",
          "type": "address[]"
        }
      ],
      "stateMutability": "view",
      "type": "function"
    },
    {
      "inputs": [
        {
          "internalType": "address",
          "name": "_deviceAddress",
          "type": "address"
        }
      ],
      "name": "getDevice",
      "outputs": [
        {
          "internalType": "address",
          "name": "deviceOwner",
          "type": "address"
        },
        {
          "internalType": "bool",
          "name": "isActive",
          "type": "bool"
        },
        {
          "internalType": "string",
          "name": "deviceType",
          "type": "string"
        },
        {
          "internalType": "uint256",
          "name": "lastSeen",
          "type": "uint256"
        },
        {
          "internalType": "bytes32",
          "name": "publicKey",
          "type": "bytes32"
        },
        {
          "internalType": "uint256",
          "name": "fee",
          "type": "uint256"
        }
      ],
      "stateMutability": "view",
      "type": "function"
    },
    {
      "inputs": [
        {
          "internalType": "address",
          "name": "_deviceAddress",
          "type": "address"
        }
      ],
      "name": "getDeviceBalance",
      "outputs": [
        {
          "internalType": "uint256",
          "name": "",
          "type": "uint256"
        }
      ],
      "stateMutability": "view",
      "type": "function"
    },
    {
      "inputs": [
        {
          "internalType": "bytes32",
          "name": "_publicKey",
          "type": "bytes32"
        }
      ],
      "name": "getDeviceByPublicKey",
      "outputs": [
        {
          "internalType": "address",
          "name": "",
          "type": "address"
        }
      ],
      "stateMutability": "view",
      "type": "function"
    },
    {
      "inputs": [
        {
          "internalType": "address",
          "name": "_deviceOwner",
          "type": "address"
        }
      ],
      "name": "getDevicesByOwner",
      "outputs": [
        {
          "internalType": "address[]",
          "name": "",
          "type": "address[]"
        }
      ],
      "stateMutability": "view",
      "type": "function"
    },
    {
      "inputs": [
        {
          "internalType": "address",
          "name": "_ownerAddress",
          "type": "address"
        }
      ],
      "name": "getOwnerBalance",
      "outputs": [
        {
          "internalType": "uint256",
          "name": "total",
          "type": "uint256"
        }
      ],
      "stateMutability": "view",
      "type": "function"
    },
    {
      "inputs": [
        {
          "internalType": "address",
          "name": "_deviceOwner",
          "type": "address"
        }
      ],
      "name": "getOwnerDeviceCount",
      "outputs": [
        {
          "internalType": "uint256",
          "name": "",
          "type": "uint256"
        }
      ],
      "stateMutability": "view",
      "type": "function"
    },
    {
      "inputs": [
        {
          "internalType": "bytes32",
          "name": "_sessionId",
          "type": "bytes32"
        }
      ],
      "name": "getSession",
      "outputs": [
        {
          "internalType": "address",
          "name": "user",
          "type": "address"
        },
        {
          "internalType": "address",
          "name": "deviceAddress",
          "type": "address"
        },
        {
          "internalType": "uint256",
          "name": "startTime",
          "type": "uint256"
        },
        {
          "internalType": "uint256",
          "name": "endTime",
          "type": "uint256"
        },
        {
          "internalType": "uint256",
          "name": "fee",
          "type": "uint256"
        },
        {
          "internalType": "bool",
          "name": "active",
          "type": "bool"
        }
      ],
      "stateMutability": "view",
      "type": "function"
    },
    {
      "inputs": [
        {
          "internalType": "address",
          "name": "_deviceAddress",
          "type": "address"
        }
      ],
      "name": "heartbeat",
      "outputs": [],
      "stateMutability": "nonpayable",
      "type": "function"
    },
    {
      "inputs": [],
      "name": "owner",
      "outputs": [
        {
          "internalType": "address",
          "name": "",
          "type": "address"
        }
      ],
      "stateMutability": "view",
      "type": "function"
    },
    {
      "inputs": [
        {
          "internalType": "address",
          "name": "_deviceAddress",
          "type": "address"
        },
        {
          "internalType": "address",
          "name": "_deviceOwner",
          "type": "address"
        },
        {
          "internalType": "string",
          "name": "_deviceType",
          "type": "string"
        },
        {
          "internalType": "bytes32",
          "name": "_publicKey",
          "type": "bytes32"
        },
        {
          "internalType": "uint256",
          "name": "_fee",
          "type": "uint256"
        }
      ],
      "name": "registerDevice",
      "outputs": [],
      "stateMutability": "nonpayable",
      "type": "function"
    },
    {
      "inputs": [],
      "name": "registrationReward",
      "outputs": [
        {
          "internalType": "uint256",
          "name": "",
          "type": "uint256"
        }
      ],
      "stateMutability": "view",
      "type": "function"
    },
    {
      "inputs": [
        {
          "internalType": "address",
          "name": "_deviceAddress",
          "type": "address"
        }
      ],
      "name": "removeDevice",
      "outputs": [],
      "stateMutability": "nonpayable",
      "type": "function"
    },
    {
      "inputs": [],
      "name": "renounceOwnership",
      "outputs": [],
      "stateMutability": "nonpayable",
      "type": "function"
    },
    {
      "inputs": [
        {
          "internalType": "bytes32",
          "name": "",
          "type": "bytes32"
        }
      ],
      "name": "sessions",
      "outputs": [
        {
          "internalType": "address",
          "name": "user",
          "type": "address"
        },
        {
          "internalType": "address",
          "name": "deviceAddress",
          "type": "address"
        },
        {
          "internalType": "uint256",
          "name": "startTime",
          "type": "uint256"
        },
        {
          "internalType": "uint256",
          "name": "endTime",
          "type": "uint256"
        },
        {
          "internalType": "uint256",
          "name": "fee",
          "type": "uint256"
        },
        {
          "internalType": "bool",
          "name": "active",
          "type": "bool"
        }
      ],
      "stateMutability": "view",
      "type": "function"
    },
    {
      "inputs": [
        {
          "internalType": "uint256",
          "name": "_reward",
          "type": "uint256"
        }
      ],
      "name": "setRegistrationReward",
      "outputs": [],
      "stateMutability": "nonpayable",
      "type": "function"
    },
    {
      "inputs": [
        {
          "internalType": "address",
          "name": "_deviceAddress",
          "type": "address"
        }
      ],
      "name": "startSession",
      "outputs": [
        {
          "internalType": "bytes32",
          "name": "sessionId",
          "type": "bytes32"
        }
      ],
      "stateMutability": "payable",
      "type": "function"
    },
    {
      "inputs": [
        {
          "internalType": "address",
          "name": "newOwner",
          "type": "address"
        }
      ],
      "name": "transferOwnership",
      "outputs": [],
      "stateMutability": "nonpayable",
      "type": "function"
    },
    {
      "inputs": [
        {
          "internalType": "address",
          "name": "_deviceAddress",
          "type": "address"
        },
        {
          "internalType": "string",
          "name": "_newDeviceType",
          "type": "string"
        },
        {
          "internalType": "uint256",
          "name": "_newFee",
          "type": "uint256"
        }
      ],
      "name": "updateDeviceInfo",
      "outputs": [],
      "stateMutability": "nonpayable",
      "type": "function"
    },
    {
      "inputs": [
        {
          "internalType": "address",
          "name": "_deviceAddress",
          "type": "address"
        },
        {
          "internalType": "bool",
          "name": "_newStatus",
          "type": "bool"
        }
      ],
      "name": "updateDeviceStatus",
      "outputs": [],
      "stateMutability": "nonpayable",
      "type": "function"
    },
    {
      "inputs": [
        {
          "internalType": "address",
          "name": "_deviceAddress",
          "type": "address"
        }
      ],
      "name": "withdraw",
      "outputs": [],
      "stateMutability": "nonpayable",
      "type": "function"
    },
    {
      "inputs": [],
      "name": "withdrawAll",
      "outputs": [],
      "stateMutability": "nonpayable",
      "type": "function"
    },
    {
      "stateMutability": "payable",
      "type": "receive"
    }
  ],
  "bytecode": "0x608060405234801561001057600080fd5b506040516155c33803806155c3833981810160405281019061003291906101e9565b80600073ffffffffffffffffffffffffffffffffffffffff168173ffffffffffffffffffffffffffffffffffffffff16036100a55760006040517f1e4fbdf700000000000000000000000000000000000000000000000000000000815260040161009c9190610225565b60405180910390fd5b6100b4816100c260201b60201c565b506001808190555050610240565b60008060009054906101000a900473ffffffffffffffffffffffffffffffffffffffff169050816000806101000a81548173ffffffffffffffffffffffffffffffffffffffff021916908373ffffffffffffffffffffffffffffffffffffffff1602179055508173ffffffffffffffffffffffffffffffffffffffff168173ffffffffffffffffffffffffffffffffffffffff167f8be0079c531659141344cd1fd0a4f28419497f9722a3daafe3b4186f6b6457e060405160405180910390a35050565b600080fd5b600073ffffffffffffffffffffffffffffffffffffffff82169050919050565b60006101b68261018b565b9050919050565b6101c6816101ab565b81146101d157600080fd5b50565b6000815190506101e3816101bd565b92915050565b6000602082840312156101ff576101fe610186565b5b600061020d848285016101d4565b91505092915050565b61021f816101ab565b82525050565b600060208201905061023a6000830184610216565b92915050565b6153748061024f6000396000f3fe60806040526004361061019f5760003560e01c80637dbd2832116100ec578063b7a1bb151161008a578063c4c8889c11610064578063c4c8889c146105e7578063e7b4cac614610624578063eb9f0a8614610666578063f2fde38b1461068f576101a6565b8063b7a1bb151461058b578063bd097e21146105b4578063c2d75457146105be576101a6565b8063865909f6116100c6578063865909f6146104e35780638a74e6d21461050e5780638da5cb5b146105375780639ce3efe614610562576101a6565b80637dbd28321461044d5780637fcf440a1461048f578063853828b6146104cc576101a6565b806351b0e9871161015957806362b178fb1161013357806362b178fb146103a55780636a1902a5146103ce578063715018a61461040b5780637a2a530d14610422576101a6565b806351b0e9871461030f57806351cff8d91461034c57806352f0bf6e14610375576101a6565b8062d55318146101ab5780631f7b6324146101ed5780632b90245f1461021657806339b240bd146102535780633ce0db3c1461029557806350b37133146102d2576101a6565b366101a657005b600080fd5b3480156101b757600080fd5b506101d260048036038101906101cd9190613a6a565b6106b8565b6040516101e496959493929190613b83565b60405180910390f35b3480156101f957600080fd5b50610214600480360381019061020f9190613a6a565b610883565b005b34801561022257600080fd5b5061023d60048036038101906102389190613a6a565b61133a565b60405161024a9190613beb565b60405180910390f35b34801561025f57600080fd5b5061027a60048036038101906102759190613c32565b611352565b60405161028c96959493929190613c5f565b60405180910390f35b3480156102a157600080fd5b506102bc60048036038101906102b79190613c32565b6113f3565b6040516102c99190613cc0565b60405180910390f35b3480156102de57600080fd5b506102f960048036038101906102f49190613a6a565b611430565b6040516103069190613cdb565b60405180910390f35b34801561031b57600080fd5b5061033660048036038101906103319190613a6a565b611479565b6040516103439190613db4565b60405180910390f35b34801561035857600080fd5b50610373600480360381019061036e9190613a6a565b611546565b005b61038f600480360381019061038a9190613a6a565b61180a565b60405161039c9190613beb565b60405180910390f35b3480156103b157600080fd5b506103cc60048036038101906103c79190613e02565b611d17565b005b3480156103da57600080fd5b506103f560048036038101906103f09190613a6a565b611fad565b6040516104029190613cdb565b60405180910390f35b34801561041757600080fd5b50610420611ff9565b005b34801561042e57600080fd5b5061043761200d565b6040516104449190613db4565b60405180910390f35b34801561045957600080fd5b50610474600480360381019061046f9190613c32565b61209b565b60405161048696959493929190613c5f565b60405180910390f35b34801561049b57600080fd5b506104b660048036038101906104b19190613a6a565b612124565b6040516104c39190613cdb565b60405180910390f35b3480156104d857600080fd5b506104e1612215565b005b3480156104ef57600080fd5b506104f86124ad565b6040516105059190613cdb565b60405180910390f35b34801561051a57600080fd5b5061053560048036038101906105309190613e6e565b6124b3565b005b34801561054357600080fd5b5061054c612508565b6040516105599190613cc0565b60405180910390f35b34801561056e57600080fd5b5061058960048036038101906105849190613c32565b612531565b005b34801561059757600080fd5b506105b260048036038101906105ad9190613a6a565b6128c2565b005b6105bc612ade565b005b3480156105ca57600080fd5b506105e560048036038101906105e09190613f00565b612b2b565b005b3480156105f357600080fd5b5061060e60048036038101906106099190613a6a565b613416565b60405161061b9190613beb565b60405180910390f35b34801561063057600080fd5b5061064b60048036038101906106469190613a6a565b61345f565b60405161065d96959493929190613b83565b60405180910390f35b34801561067257600080fd5b5061068d60048036038101906106889190613f9a565b613550565b005b34801561069b57600080fd5b506106b660048036038101906106b19190613a6a565b61377d565b005b6000806060600080600080600260008973ffffffffffffffffffffffffffffffffffffffff1673ffffffffffffffffffffffffffffffffffffffff1681526020019081526020016000209050600073ffffffffffffffffffffffffffffffffffffffff168160000160009054906101000a900473ffffffffffffffffffffffffffffffffffffffff1673ffffffffffffffffffffffffffffffffffffffff1603610797576040517f08c379a000000000000000000000000000000000000000000000000000000000815260040161078e9061405a565b60405180910390fd5b8060000160009054906101000a900473ffffffffffffffffffffffffffffffffffffffff168160000160149054906101000a900460ff16826001018360020154846003015485600401548380546107ed906140a9565b80601f0160208091040260200160405190810160405280929190818152602001828054610819906140a9565b80156108665780601f1061083b57610100808354040283529160200191610866565b820191906000526020600020905b81548152906001019060200180831161084957829003601f168201915b505050505093509650965096509650965096505091939550919395565b806000600260008373ffffffffffffffffffffffffffffffffffffffff1673ffffffffffffffffffffffffffffffffffffffff16815260200190815260200160002060000160009054906101000a900473ffffffffffffffffffffffffffffffffffffffff169050600073ffffffffffffffffffffffffffffffffffffffff168173ffffffffffffffffffffffffffffffffffffffff160361095a576040517f08c379a000000000000000000000000000000000000000000000000000000000815260040161095190614126565b60405180910390fd5b610962612508565b73ffffffffffffffffffffffffffffffffffffffff163373ffffffffffffffffffffffffffffffffffffffff1614806109c657508073ffffffffffffffffffffffffffffffffffffffff163373ffffffffffffffffffffffffffffffffffffffff16145b610a05576040517f08c379a00000000000000000000000000000000000000000000000000000000081526004016109fc90614192565b60405180910390fd5b600073ffffffffffffffffffffffffffffffffffffffff16600260008573ffffffffffffffffffffffffffffffffffffffff1673ffffffffffffffffffffffffffffffffffffffff16815260200190815260200160002060000160009054906101000a900473ffffffffffffffffffffffffffffffffffffffff1673ffffffffffffffffffffffffffffffffffffffff1603610ad6576040517f08c379a0000000000000000000000000000000000000000000000000000000008152600401610acd9061405a565b60405180910390fd5b6000801b600960008573ffffffffffffffffffffffffffffffffffffffff1673ffffffffffffffffffffffffffffffffffffffff1681526020019081526020016000205414610b5a576040517f08c379a0000000000000000000000000000000000000000000000000000000008152600401610b5190614224565b60405180910390fd5b6000600260008573ffffffffffffffffffffffffffffffffffffffff1673ffffffffffffffffffffffffffffffffffffffff16815260200190815260200160002060000160009054906101000a900473ffffffffffffffffffffffffffffffffffffffff16905060056000600260008773ffffffffffffffffffffffffffffffffffffffff1673ffffffffffffffffffffffffffffffffffffffff16815260200190815260200160002060030154815260200190815260200160002060006101000a81549073ffffffffffffffffffffffffffffffffffffffff0219169055600260008573ffffffffffffffffffffffffffffffffffffffff1673ffffffffffffffffffffffffffffffffffffffff168152602001908152602001600020600080820160006101000a81549073ffffffffffffffffffffffffffffffffffffffff02191690556000820160146101000a81549060ff0219169055600182016000610cc491906139a5565b60028201600090556003820160009055600482016000905550506000600660008673ffffffffffffffffffffffffffffffffffffffff1673ffffffffffffffffffffffffffffffffffffffff16815260200190815260200160002054905060008103610d65576040517f08c379a0000000000000000000000000000000000000000000000000000000008152600401610d5c90614290565b60405180910390fd5b6000600182610d7491906142df565b905060006001600380549050610d8a91906142df565b9050808214610e8557600060038281548110610da957610da8614313565b5b9060005260206000200160009054906101000a900473ffffffffffffffffffffffffffffffffffffffff1690508060038481548110610deb57610dea614313565b5b9060005260206000200160006101000a81548173ffffffffffffffffffffffffffffffffffffffff021916908373ffffffffffffffffffffffffffffffffffffffff160217905550600183610e409190614342565b600660008373ffffffffffffffffffffffffffffffffffffffff1673ffffffffffffffffffffffffffffffffffffffff16815260200190815260200160002081905550505b6003805480610e9757610e96614376565b5b6001900381819060005260206000200160006101000a81549073ffffffffffffffffffffffffffffffffffffffff02191690559055600660008873ffffffffffffffffffffffffffffffffffffffff1673ffffffffffffffffffffffffffffffffffffffff168152602001908152602001600020600090556000600760008673ffffffffffffffffffffffffffffffffffffffff1673ffffffffffffffffffffffffffffffffffffffff16815260200190815260200160002060008973ffffffffffffffffffffffffffffffffffffffff1673ffffffffffffffffffffffffffffffffffffffff16815260200190815260200160002054905060008103610fd3576040517f08c379a0000000000000000000000000000000000000000000000000000000008152600401610fca906143f1565b60405180910390fd5b6000600182610fe291906142df565b905060006001600460008973ffffffffffffffffffffffffffffffffffffffff1673ffffffffffffffffffffffffffffffffffffffff1681526020019081526020016000208054905061103591906142df565b90508082146111e7576000600460008973ffffffffffffffffffffffffffffffffffffffff1673ffffffffffffffffffffffffffffffffffffffff168152602001908152602001600020828154811061109157611090614313565b5b9060005260206000200160009054906101000a900473ffffffffffffffffffffffffffffffffffffffff16905080600460008a73ffffffffffffffffffffffffffffffffffffffff1673ffffffffffffffffffffffffffffffffffffffff16815260200190815260200160002084815481106111105761110f614313565b5b9060005260206000200160006101000a81548173ffffffffffffffffffffffffffffffffffffffff021916908373ffffffffffffffffffffffffffffffffffffffff1602179055506001836111659190614342565b600760008a73ffffffffffffffffffffffffffffffffffffffff1673ffffffffffffffffffffffffffffffffffffffff16815260200190815260200160002060008373ffffffffffffffffffffffffffffffffffffffff1673ffffffffffffffffffffffffffffffffffffffff16815260200190815260200160002081905550505b600460008873ffffffffffffffffffffffffffffffffffffffff1673ffffffffffffffffffffffffffffffffffffffff16815260200190815260200160002080548061123657611235614376565b5b6001900381819060005260206000200160006101000a81549073ffffffffffffffffffffffffffffffffffffffff02191690559055600760008873ffffffffffffffffffffffffffffffffffffffff1673ffffffffffffffffffffffffffffffffffffffff16815260200190815260200160002060008b73ffffffffffffffffffffffffffffffffffffffff1673ffffffffffffffffffffffffffffffffffffffff168152602001908152602001600020600090558973ffffffffffffffffffffffffffffffffffffffff167f15c62ec158a6c18af42b447791266b9b0764ba2a6df610890d4da85c3d4185db60405160405180910390a250505050505050505050565b60096020528060005260406000206000915090505481565b60008060008060008060006008600089815260200190815260200160002090508060000160009054906101000a900473ffffffffffffffffffffffffffffffffffffffff168160010160009054906101000a900473ffffffffffffffffffffffffffffffffffffffff168260020154836003015484600401548560050160009054906101000a900460ff169650965096509650965096505091939550919395565b60006005600083815260200190815260200160002060009054906101000a900473ffffffffffffffffffffffffffffffffffffffff169050919050565b6000600a60008373ffffffffffffffffffffffffffffffffffffffff1673ffffffffffffffffffffffffffffffffffffffff168152602001908152602001600020549050919050565b6060600460008373ffffffffffffffffffffffffffffffffffffffff1673ffffffffffffffffffffffffffffffffffffffff16815260200190815260200160002080548060200260200160405190810160405280929190818152602001828054801561153a57602002820191906000526020600020905b8160009054906101000a900473ffffffffffffffffffffffffffffffffffffffff1673ffffffffffffffffffffffffffffffffffffffff16815260200190600101908083116114f0575b50505050509050919050565b803373ffffffffffffffffffffffffffffffffffffffff16600260008373ffffffffffffffffffffffffffffffffffffffff1673ffffffffffffffffffffffffffffffffffffffff16815260200190815260200160002060000160009054906101000a900473ffffffffffffffffffffffffffffffffffffffff1673ffffffffffffffffffffffffffffffffffffffff1614611617576040517f08c379a000000000000000000000000000000000000000000000000000000000815260040161160e9061445d565b60405180910390fd5b61161f613803565b6000600a60008473ffffffffffffffffffffffffffffffffffffffff1673ffffffffffffffffffffffffffffffffffffffff168152602001908152602001600020549050600081116116a6576040517f08c379a000000000000000000000000000000000000000000000000000000000815260040161169d906144c9565b60405180910390fd5b6000600a60008573ffffffffffffffffffffffffffffffffffffffff1673ffffffffffffffffffffffffffffffffffffffff1681526020019081526020016000208190555060003373ffffffffffffffffffffffffffffffffffffffff16826040516117119061451a565b60006040518083038185875af1925050503d806000811461174e576040519150601f19603f3d011682016040523d82523d6000602084013e611753565b606091505b5050905080611797576040517f08c379a000000000000000000000000000000000000000000000000000000000815260040161178e9061457b565b60405180910390fd5b8373ffffffffffffffffffffffffffffffffffffffff163373ffffffffffffffffffffffffffffffffffffffff167f9b1bfa7fa9ee420a16e124f794c35ac9f90472acc99140eb2f6447c714cad8eb846040516117f49190613cdb565b60405180910390a35050611806613849565b5050565b6000611814613803565b6000600260008473ffffffffffffffffffffffffffffffffffffffff1673ffffffffffffffffffffffffffffffffffffffff1681526020019081526020016000209050600073ffffffffffffffffffffffffffffffffffffffff168160000160009054906101000a900473ffffffffffffffffffffffffffffffffffffffff1673ffffffffffffffffffffffffffffffffffffffff16036118ea576040517f08c379a00000000000000000000000000000000000000000000000000000000081526004016118e19061405a565b60405180910390fd5b8060000160149054906101000a900460ff1661193b576040517f08c379a0000000000000000000000000000000000000000000000000000000008152600401611932906145e7565b60405180910390fd5b6000801b600960008573ffffffffffffffffffffffffffffffffffffffff1673ffffffffffffffffffffffffffffffffffffffff16815260200190815260200160002054146119bf576040517f08c379a00000000000000000000000000000000000000000000000000000000081526004016119b690614653565b60405180910390fd5b80600401543414611a05576040517f08c379a00000000000000000000000000000000000000000000000000000000081526004016119fc906146bf565b60405180910390fd5b6000816004015434611a1791906142df565b90506000811115611ad05760003373ffffffffffffffffffffffffffffffffffffffff1682604051611a489061451a565b60006040518083038185875af1925050503d8060008114611a85576040519150601f19603f3d011682016040523d82523d6000602084013e611a8a565b606091505b5050905080611ace576040517f08c379a0000000000000000000000000000000000000000000000000000000008152600401611ac59061472b565b60405180910390fd5b505b338442600b54604051602001611ae994939291906147b4565b604051602081830303815290604052805190602001209250600b6000815480929190611b1490614802565b91905055506040518060c001604052803373ffffffffffffffffffffffffffffffffffffffff1681526020018573ffffffffffffffffffffffffffffffffffffffff1681526020014281526020016000815260200183600401548152602001600115158152506008600085815260200190815260200160002060008201518160000160006101000a81548173ffffffffffffffffffffffffffffffffffffffff021916908373ffffffffffffffffffffffffffffffffffffffff16021790555060208201518160010160006101000a81548173ffffffffffffffffffffffffffffffffffffffff021916908373ffffffffffffffffffffffffffffffffffffffff16021790555060408201518160020155606082015181600301556080820151816004015560a08201518160050160006101000a81548160ff02191690831515021790555090505082600960008673ffffffffffffffffffffffffffffffffffffffff1673ffffffffffffffffffffffffffffffffffffffff168152602001908152602001600020819055508373ffffffffffffffffffffffffffffffffffffffff163373ffffffffffffffffffffffffffffffffffffffff16847f675ed02a7da02e17eb2e6ee83896b827b6d16548265c9e01ba9999e95bfca9274234604051611d0092919061484a565b60405180910390a45050611d12613849565b919050565b816000600260008373ffffffffffffffffffffffffffffffffffffffff1673ffffffffffffffffffffffffffffffffffffffff16815260200190815260200160002060000160009054906101000a900473ffffffffffffffffffffffffffffffffffffffff169050600073ffffffffffffffffffffffffffffffffffffffff168173ffffffffffffffffffffffffffffffffffffffff1603611dee576040517f08c379a0000000000000000000000000000000000000000000000000000000008152600401611de590614126565b60405180910390fd5b611df6612508565b73ffffffffffffffffffffffffffffffffffffffff163373ffffffffffffffffffffffffffffffffffffffff161480611e5a57508073ffffffffffffffffffffffffffffffffffffffff163373ffffffffffffffffffffffffffffffffffffffff16145b611e99576040517f08c379a0000000000000000000000000000000000000000000000000000000008152600401611e9090614192565b60405180910390fd5b6000600260008673ffffffffffffffffffffffffffffffffffffffff1673ffffffffffffffffffffffffffffffffffffffff16815260200190815260200160002090508315158160000160149054906101000a900460ff16151503611f33576040517f08c379a0000000000000000000000000000000000000000000000000000000008152600401611f2a906148bf565b60405180910390fd5b838160000160146101000a81548160ff0219169083151502179055504281600201819055508473ffffffffffffffffffffffffffffffffffffffff167f239e6a69dd8eeb459ba23bc6c7f8cf9dadb8d4ea555ae818de3abd7705aaec7e85604051611f9e91906148df565b60405180910390a25050505050565b6000600460008373ffffffffffffffffffffffffffffffffffffffff1673ffffffffffffffffffffffffffffffffffffffff168152602001908152602001600020805490509050919050565b612001613852565b61200b60006138d9565b565b6060600380548060200260200160405190810160405280929190818152602001828054801561209157602002820191906000526020600020905b8160009054906101000a900473ffffffffffffffffffffffffffffffffffffffff1673ffffffffffffffffffffffffffffffffffffffff1681526020019060010190808311612047575b5050505050905090565b60086020528060005260406000206000915090508060000160009054906101000a900473ffffffffffffffffffffffffffffffffffffffff16908060010160009054906101000a900473ffffffffffffffffffffffffffffffffffffffff16908060020154908060030154908060040154908060050160009054906101000a900460ff16905086565b600080600460008473ffffffffffffffffffffffffffffffffffffffff1673ffffffffffffffffffffffffffffffffffffffff168152602001908152602001600020905060005b818054905081101561220e57600a600083838154811061218e5761218d614313565b5b9060005260206000200160009054906101000a900473ffffffffffffffffffffffffffffffffffffffff1673ffffffffffffffffffffffffffffffffffffffff1673ffffffffffffffffffffffffffffffffffffffff16815260200190815260200160002054836121ff9190614342565b9250808060010191505061216b565b5050919050565b61221d613803565b6000600460003373ffffffffffffffffffffffffffffffffffffffff1673ffffffffffffffffffffffffffffffffffffffff16815260200190815260200160002090506000805b828054905081101561236257600083828154811061228557612284614313565b5b9060005260206000200160009054906101000a900473ffffffffffffffffffffffffffffffffffffffff1690506000600a60008373ffffffffffffffffffffffffffffffffffffffff1673ffffffffffffffffffffffffffffffffffffffff168152602001908152602001600020549050600081111561235357808461230b9190614342565b93506000600a60008473ffffffffffffffffffffffffffffffffffffffff1673ffffffffffffffffffffffffffffffffffffffff168152602001908152602001600020819055505b50508080600101915050612264565b50600081116123a6576040517f08c379a000000000000000000000000000000000000000000000000000000000815260040161239d90614946565b60405180910390fd5b60003373ffffffffffffffffffffffffffffffffffffffff16826040516123cc9061451a565b60006040518083038185875af1925050503d8060008114612409576040519150601f19603f3d011682016040523d82523d6000602084013e61240e565b606091505b5050905080612452576040517f08c379a0000000000000000000000000000000000000000000000000000000008152600401612449906149b2565b60405180910390fd5b3373ffffffffffffffffffffffffffffffffffffffff167fd7a4aa9f3dca5f6606ac15d7e1850920201bbb02c38cd986793779f58ae0dfd3836040516124989190613cdb565b60405180910390a25050506124ab613849565b565b600c5481565b6124bb613852565b600081116124fe576040517f08c379a00000000000000000000000000000000000000000000000000000000081526004016124f590614a1e565b60405180910390fd5b80600c8190555050565b60008060009054906101000a900473ffffffffffffffffffffffffffffffffffffffff16905090565b612539613803565b60006008600083815260200190815260200160002090508060050160009054906101000a900460ff166125a1576040517f08c379a000000000000000000000000000000000000000000000000000000000815260040161259890614a8a565b60405180910390fd5b8060000160009054906101000a900473ffffffffffffffffffffffffffffffffffffffff1673ffffffffffffffffffffffffffffffffffffffff163373ffffffffffffffffffffffffffffffffffffffff1614806126b05750600260008260010160009054906101000a900473ffffffffffffffffffffffffffffffffffffffff1673ffffffffffffffffffffffffffffffffffffffff1673ffffffffffffffffffffffffffffffffffffffff16815260200190815260200160002060000160009054906101000a900473ffffffffffffffffffffffffffffffffffffffff1673ffffffffffffffffffffffffffffffffffffffff163373ffffffffffffffffffffffffffffffffffffffff16145b6126ef576040517f08c379a00000000000000000000000000000000000000000000000000000000081526004016126e690614af6565b60405180910390fd5b42816003018190555060008160050160006101000a81548160ff0219169083151502179055508060040154600a60008360010160009054906101000a900473ffffffffffffffffffffffffffffffffffffffff1673ffffffffffffffffffffffffffffffffffffffff1673ffffffffffffffffffffffffffffffffffffffff168152602001908152602001600020600082825461278c9190614342565b925050819055506000801b600960008360010160009054906101000a900473ffffffffffffffffffffffffffffffffffffffff1673ffffffffffffffffffffffffffffffffffffffff1673ffffffffffffffffffffffffffffffffffffffff168152602001908152602001600020819055508060010160009054906101000a900473ffffffffffffffffffffffffffffffffffffffff1673ffffffffffffffffffffffffffffffffffffffff168160000160009054906101000a900473ffffffffffffffffffffffffffffffffffffffff1673ffffffffffffffffffffffffffffffffffffffff16837fab57a93531037533136dc2967098b9b316a54a332fb9c8f81fd650a4a1d35bf6846003015485600401546040516128ae92919061484a565b60405180910390a4506128bf613849565b50565b806000600260008373ffffffffffffffffffffffffffffffffffffffff1673ffffffffffffffffffffffffffffffffffffffff16815260200190815260200160002060000160009054906101000a900473ffffffffffffffffffffffffffffffffffffffff169050600073ffffffffffffffffffffffffffffffffffffffff168173ffffffffffffffffffffffffffffffffffffffff1603612999576040517f08c379a000000000000000000000000000000000000000000000000000000000815260040161299090614126565b60405180910390fd5b6129a1612508565b73ffffffffffffffffffffffffffffffffffffffff163373ffffffffffffffffffffffffffffffffffffffff161480612a0557508073ffffffffffffffffffffffffffffffffffffffff163373ffffffffffffffffffffffffffffffffffffffff16145b612a44576040517f08c379a0000000000000000000000000000000000000000000000000000000008152600401612a3b90614192565b60405180910390fd5b42600260008573ffffffffffffffffffffffffffffffffffffffff1673ffffffffffffffffffffffffffffffffffffffff168152602001908152602001600020600201819055508273ffffffffffffffffffffffffffffffffffffffff167fc9e21bc538982e741a2747b1e8fe64a7226705960501076994d0363f44a4dd3b42604051612ad19190613cdb565b60405180910390a2505050565b612ae6613852565b60003411612b29576040517f08c379a0000000000000000000000000000000000000000000000000000000008152600401612b2090614b62565b60405180910390fd5b565b600073ffffffffffffffffffffffffffffffffffffffff168673ffffffffffffffffffffffffffffffffffffffff1614158015612b955750600073ffffffffffffffffffffffffffffffffffffffff168573ffffffffffffffffffffffffffffffffffffffff1614155b612bd4576040517f08c379a0000000000000000000000000000000000000000000000000000000008152600401612bcb90614bce565b60405180910390fd5b8473ffffffffffffffffffffffffffffffffffffffff168673ffffffffffffffffffffffffffffffffffffffff1603612c42576040517f08c379a0000000000000000000000000000000000000000000000000000000008152600401612c3990614c3a565b60405180910390fd5b600073ffffffffffffffffffffffffffffffffffffffff16600260008873ffffffffffffffffffffffffffffffffffffffff1673ffffffffffffffffffffffffffffffffffffffff16815260200190815260200160002060000160009054906101000a900473ffffffffffffffffffffffffffffffffffffffff1673ffffffffffffffffffffffffffffffffffffffff1614612d13576040517f08c379a0000000000000000000000000000000000000000000000000000000008152600401612d0a90614ca6565b60405180910390fd5b6000801b8203612d58576040517f08c379a0000000000000000000000000000000000000000000000000000000008152600401612d4f90614d12565b60405180910390fd5b600073ffffffffffffffffffffffffffffffffffffffff166005600084815260200190815260200160002060009054906101000a900473ffffffffffffffffffffffffffffffffffffffff1673ffffffffffffffffffffffffffffffffffffffff1614612dfa576040517f08c379a0000000000000000000000000000000000000000000000000000000008152600401612df190614d7e565b60405180910390fd5b8473ffffffffffffffffffffffffffffffffffffffff163373ffffffffffffffffffffffffffffffffffffffff1614612e68576040517f08c379a0000000000000000000000000000000000000000000000000000000008152600401612e5f90614e10565b60405180910390fd5b60008111612eab576040517f08c379a0000000000000000000000000000000000000000000000000000000008152600401612ea290614e7c565b60405180910390fd5b600084849050118015612ec2575060408484905011155b612f01576040517f08c379a0000000000000000000000000000000000000000000000000000000008152600401612ef890614ee8565b60405180910390fd5b6040518060c001604052808673ffffffffffffffffffffffffffffffffffffffff16815260200160011515815260200185858080601f016020809104026020016040519081016040528093929190818152602001838380828437600081840152601f19601f82011690508083019250505050505050815260200142815260200183815260200182815250600260008873ffffffffffffffffffffffffffffffffffffffff1673ffffffffffffffffffffffffffffffffffffffff16815260200190815260200160002060008201518160000160006101000a81548173ffffffffffffffffffffffffffffffffffffffff021916908373ffffffffffffffffffffffffffffffffffffffff16021790555060208201518160000160146101000a81548160ff021916908315150217905550604082015181600101908161304691906150e3565b50606082015181600201556080820151816003015560a08201518160040155905050600160038054905061307a9190614342565b600660008873ffffffffffffffffffffffffffffffffffffffff1673ffffffffffffffffffffffffffffffffffffffff168152602001908152602001600020819055506003869080600181540180825580915050600190039060005260206000200160009091909190916101000a81548173ffffffffffffffffffffffffffffffffffffffff021916908373ffffffffffffffffffffffffffffffffffffffff1602179055506001600460008773ffffffffffffffffffffffffffffffffffffffff1673ffffffffffffffffffffffffffffffffffffffff1681526020019081526020016000208054905061316f9190614342565b600760008773ffffffffffffffffffffffffffffffffffffffff1673ffffffffffffffffffffffffffffffffffffffff16815260200190815260200160002060008873ffffffffffffffffffffffffffffffffffffffff1673ffffffffffffffffffffffffffffffffffffffff16815260200190815260200160002081905550600460008673ffffffffffffffffffffffffffffffffffffffff1673ffffffffffffffffffffffffffffffffffffffff168152602001908152602001600020869080600181540180825580915050600190039060005260206000200160009091909190916101000a81548173ffffffffffffffffffffffffffffffffffffffff021916908373ffffffffffffffffffffffffffffffffffffffff160217905550856005600084815260200190815260200160002060006101000a81548173ffffffffffffffffffffffffffffffffffffffff021916908373ffffffffffffffffffffffffffffffffffffffff1602179055506000600c541180156132f55750600c544710155b156133a357600c54600a60008873ffffffffffffffffffffffffffffffffffffffff1673ffffffffffffffffffffffffffffffffffffffff168152602001908152602001600020600082825461334b9190614342565b925050819055508573ffffffffffffffffffffffffffffffffffffffff167f8f5b32cdc408887bd86f02d6551cbbae5f6b7cda960e35eefb7156a3b8587c51600c5460405161339a9190613cdb565b60405180910390a25b8473ffffffffffffffffffffffffffffffffffffffff168673ffffffffffffffffffffffffffffffffffffffff167fcc71163ea9dc0c853ea04b43b6dda2a91a1241c4f7c033791ab3dd83b3eb218a8686868660405161340694939291906151f1565b60405180910390a3505050505050565b6000600960008373ffffffffffffffffffffffffffffffffffffffff1673ffffffffffffffffffffffffffffffffffffffff168152602001908152602001600020549050919050565b60026020528060005260406000206000915090508060000160009054906101000a900473ffffffffffffffffffffffffffffffffffffffff16908060000160149054906101000a900460ff16908060010180546134bb906140a9565b80601f01602080910402602001604051908101604052809291908181526020018280546134e7906140a9565b80156135345780601f1061350957610100808354040283529160200191613534565b820191906000526020600020905b81548152906001019060200180831161351757829003601f168201915b5050505050908060020154908060030154908060040154905086565b833373ffffffffffffffffffffffffffffffffffffffff16600260008373ffffffffffffffffffffffffffffffffffffffff1673ffffffffffffffffffffffffffffffffffffffff16815260200190815260200160002060000160009054906101000a900473ffffffffffffffffffffffffffffffffffffffff1673ffffffffffffffffffffffffffffffffffffffff1614613621576040517f08c379a00000000000000000000000000000000000000000000000000000000081526004016136189061445d565b60405180910390fd5b600084849050118015613638575060408484905011155b613677576040517f08c379a000000000000000000000000000000000000000000000000000000000815260040161366e90614ee8565b60405180910390fd5b600082116136ba576040517f08c379a00000000000000000000000000000000000000000000000000000000081526004016136b190614e7c565b60405180910390fd5b6000600260008773ffffffffffffffffffffffffffffffffffffffff1673ffffffffffffffffffffffffffffffffffffffff1681526020019081526020016000209050848482600101918261371092919061523c565b504281600201819055508281600401819055508573ffffffffffffffffffffffffffffffffffffffff167fe64b1afc01f78f488e9513086bf0c18a8832bebcc7bd67c3907349979d67504086868660405161376d9392919061530c565b60405180910390a2505050505050565b613785613852565b600073ffffffffffffffffffffffffffffffffffffffff168173ffffffffffffffffffffffffffffffffffffffff16036137f75760006040517f1e4fbdf70000000000000000000000000000000000000000000000000000000081526004016137ee9190613cc0565b60405180910390fd5b613800816138d9565b50565b60026001540361383f576040517f3ee5aeb500000000000000000000000000000000000000000000000000000000815260040160405180910390fd5b6002600181905550565b60018081905550565b61385a61399d565b73ffffffffffffffffffffffffffffffffffffffff16613878612508565b73ffffffffffffffffffffffffffffffffffffffff16146138d75761389b61399d565b6040517f118cdaa70000000000000000000000000000000000000000000000000000000081526004016138ce9190613cc0565b60405180910390fd5b565b60008060009054906101000a900473ffffffffffffffffffffffffffffffffffffffff169050816000806101000a81548173ffffffffffffffffffffffffffffffffffffffff021916908373ffffffffffffffffffffffffffffffffffffffff1602179055508173ffffffffffffffffffffffffffffffffffffffff168173ffffffffffffffffffffffffffffffffffffffff167f8be0079c531659141344cd1fd0a4f28419497f9722a3daafe3b4186f6b6457e060405160405180910390a35050565b600033905090565b5080546139b1906140a9565b6000825580601f106139c357506139e2565b601f0160209004906000526020600020908101906139e191906139e5565b5b50565b5b808211156139fe5760008160009055506001016139e6565b5090565b600080fd5b600080fd5b600073ffffffffffffffffffffffffffffffffffffffff82169050919050565b6000613a3782613a0c565b9050919050565b613a4781613a2c565b8114613a5257600080fd5b50565b600081359050613a6481613a3e565b92915050565b600060208284031215613a8057613a7f613a02565b5b6000613a8e84828501613a55565b91505092915050565b613aa081613a2c565b82525050565b60008115159050919050565b613abb81613aa6565b82525050565b600081519050919050565b600082825260208201905092915050565b60005b83811015613afb578082015181840152602081019050613ae0565b60008484015250505050565b6000601f19601f8301169050919050565b6000613b2382613ac1565b613b2d8185613acc565b9350613b3d818560208601613add565b613b4681613b07565b840191505092915050565b6000819050919050565b613b6481613b51565b82525050565b6000819050919050565b613b7d81613b6a565b82525050565b600060c082019050613b986000830189613a97565b613ba56020830188613ab2565b8181036040830152613bb78187613b18565b9050613bc66060830186613b5b565b613bd36080830185613b74565b613be060a0830184613b5b565b979650505050505050565b6000602082019050613c006000830184613b74565b92915050565b613c0f81613b6a565b8114613c1a57600080fd5b50565b600081359050613c2c81613c06565b92915050565b600060208284031215613c4857613c47613a02565b5b6000613c5684828501613c1d565b91505092915050565b600060c082019050613c746000830189613a97565b613c816020830188613a97565b613c8e6040830187613b5b565b613c9b6060830186613b5b565b613ca86080830185613b5b565b613cb560a0830184613ab2565b979650505050505050565b6000602082019050613cd56000830184613a97565b92915050565b6000602082019050613cf06000830184613b5b565b92915050565b600081519050919050565b600082825260208201905092915050565b6000819050602082019050919050565b613d2b81613a2c565b82525050565b6000613d3d8383613d22565b60208301905092915050565b6000602082019050919050565b6000613d6182613cf6565b613d6b8185613d01565b9350613d7683613d12565b8060005b83811015613da7578151613d8e8882613d31565b9750613d9983613d49565b925050600181019050613d7a565b5085935050505092915050565b60006020820190508181036000830152613dce8184613d56565b905092915050565b613ddf81613aa6565b8114613dea57600080fd5b50565b600081359050613dfc81613dd6565b92915050565b60008060408385031215613e1957613e18613a02565b5b6000613e2785828601613a55565b9250506020613e3885828601613ded565b9150509250929050565b613e4b81613b51565b8114613e5657600080fd5b50565b600081359050613e6881613e42565b92915050565b600060208284031215613e8457613e83613a02565b5b6000613e9284828501613e59565b91505092915050565b600080fd5b600080fd5b600080fd5b60008083601f840112613ec057613ebf613e9b565b5b8235905067ffffffffffffffff811115613edd57613edc613ea0565b5b602083019150836001820283011115613ef957613ef8613ea5565b5b9250929050565b60008060008060008060a08789031215613f1d57613f1c613a02565b5b6000613f2b89828a01613a55565b9650506020613f3c89828a01613a55565b955050604087013567ffffffffffffffff811115613f5d57613f5c613a07565b5b613f6989828a01613eaa565b94509450506060613f7c89828a01613c1d565b9250506080613f8d89828a01613e59565b9150509295509295509295565b60008060008060608587031215613fb457613fb3613a02565b5b6000613fc287828801613a55565b945050602085013567ffffffffffffffff811115613fe357613fe2613a07565b5b613fef87828801613eaa565b9350935050604061400287828801613e59565b91505092959194509250565b7f446576696365206973206e6f7420726567697374657265640000000000000000600082015250565b6000614044601883613acc565b915061404f8261400e565b602082019050919050565b6000602082019050818103600083015261407381614037565b9050919050565b7f4e487b7100000000000000000000000000000000000000000000000000000000600052602260045260246000fd5b600060028204905060018216806140c157607f821691505b6020821081036140d4576140d361407a565b5b50919050565b7f446576696365206e6f7420726567697374657265640000000000000000000000600082015250565b6000614110601583613acc565b915061411b826140da565b602082019050919050565b6000602082019050818103600083015261413f81614103565b9050919050565b7f4e6f7420617574686f72697a6564000000000000000000000000000000000000600082015250565b600061417c600e83613acc565b915061418782614146565b602082019050919050565b600060208201905081810360008301526141ab8161416f565b9050919050565b7f556e61626c6520746f2072656d6f76652064657669636520776974682061637460008201527f6976652073657373696f6e000000000000000000000000000000000000000000602082015250565b600061420e602b83613acc565b9150614219826141b2565b604082019050919050565b6000602082019050818103600083015261423d81614201565b9050919050565b7f44657669636520696e646578206d697373696e67000000000000000000000000600082015250565b600061427a601483613acc565b915061428582614244565b602082019050919050565b600060208201905081810360008301526142a98161426d565b9050919050565b7f4e487b7100000000000000000000000000000000000000000000000000000000600052601160045260246000fd5b60006142ea82613b51565b91506142f583613b51565b925082820390508181111561430d5761430c6142b0565b5b92915050565b7f4e487b7100000000000000000000000000000000000000000000000000000000600052603260045260246000fd5b600061434d82613b51565b915061435883613b51565b92508282019050808211156143705761436f6142b0565b5b92915050565b7f4e487b7100000000000000000000000000000000000000000000000000000000600052603160045260246000fd5b7f4f6e77657220696e646578206d697373696e6700000000000000000000000000600082015250565b60006143db601383613acc565b91506143e6826143a5565b602082019050919050565b6000602082019050818103600083015261440a816143ce565b9050919050565b7f4e6f7420646576696365206f776e657200000000000000000000000000000000600082015250565b6000614447601083613acc565b915061445282614411565b602082019050919050565b600060208201905081810360008301526144768161443a565b9050919050565b7f4e6f206561726e696e6773000000000000000000000000000000000000000000600082015250565b60006144b3600b83613acc565b91506144be8261447d565b602082019050919050565b600060208201905081810360008301526144e2816144a6565b9050919050565b600081905092915050565b50565b60006145046000836144e9565b915061450f826144f4565b600082019050919050565b6000614525826144f7565b9150819050919050565b7f5769746864726177206661696c65640000000000000000000000000000000000600082015250565b6000614565600f83613acc565b91506145708261452f565b602082019050919050565b6000602082019050818103600083015261459481614558565b9050919050565b7f446576696365206973206e6f7420616374697665000000000000000000000000600082015250565b60006145d1601483613acc565b91506145dc8261459b565b602082019050919050565b60006020820190508181036000830152614600816145c4565b9050919050565b7f44657669636520616c726561647920696e207573650000000000000000000000600082015250565b600061463d601583613acc565b915061464882614607565b602082019050919050565b6000602082019050818103600083015261466c81614630565b9050919050565b7f496e636f727265637420666565207375626d6974746564000000000000000000600082015250565b60006146a9601783613acc565b91506146b482614673565b602082019050919050565b600060208201905081810360008301526146d88161469c565b9050919050565b7f526566756e64206661696c656400000000000000000000000000000000000000600082015250565b6000614715600d83613acc565b9150614720826146df565b602082019050919050565b6000602082019050818103600083015261474481614708565b9050919050565b60008160601b9050919050565b60006147638261474b565b9050919050565b600061477582614758565b9050919050565b61478d61478882613a2c565b61476a565b82525050565b6000819050919050565b6147ae6147a982613b51565b614793565b82525050565b60006147c0828761477c565b6014820191506147d0828661477c565b6014820191506147e0828561479d565b6020820191506147f0828461479d565b60208201915081905095945050505050565b600061480d82613b51565b91507fffffffffffffffffffffffffffffffffffffffffffffffffffffffffffffffff820361483f5761483e6142b0565b5b600182019050919050565b600060408201905061485f6000830185613b5b565b61486c6020830184613b5b565b9392505050565b7f4e6f20737461747573206368616e676500000000000000000000000000000000600082015250565b60006148a9601083613acc565b91506148b482614873565b602082019050919050565b600060208201905081810360008301526148d88161489c565b9050919050565b60006020820190506148f46000830184613ab2565b92915050565b7f4e6f206561726e696e677320746f207769746864726177000000000000000000600082015250565b6000614930601783613acc565b915061493b826148fa565b602082019050919050565b6000602082019050818103600083015261495f81614923565b9050919050565b7f576974686472617720416c6c206661696c656400000000000000000000000000600082015250565b600061499c601383613acc565b91506149a782614966565b602082019050919050565b600060208201905081810360008301526149cb8161498f565b9050919050565b7f526577617264206d7573742062652067726561746572207468616e2030000000600082015250565b6000614a08601d83613acc565b9150614a13826149d2565b602082019050919050565b60006020820190508181036000830152614a37816149fb565b9050919050565b7f53657373696f6e206e6f74206163746976650000000000000000000000000000600082015250565b6000614a74601283613acc565b9150614a7f82614a3e565b602082019050919050565b60006020820190508181036000830152614aa381614a67565b9050919050565b7f4e6f7420617574686f72697a656420746f20656e642073657373696f6e000000600082015250565b6000614ae0601d83613acc565b9150614aeb82614aaa565b602082019050919050565b60006020820190508181036000830152614b0f81614ad3565b9050919050565b7f4d7573742073656e6420746f6b656e7320746f2066756e640000000000000000600082015250565b6000614b4c601883613acc565b9150614b5782614b16565b602082019050919050565b60006020820190508181036000830152614b7b81614b3f565b9050919050565b7f5a65726f20616464726573730000000000000000000000000000000000000000600082015250565b6000614bb8600c83613acc565b9150614bc382614b82565b602082019050919050565b60006020820190508181036000830152614be781614bab565b9050919050565b7f4465766963652063616e6e6f74206265206f776e657200000000000000000000600082015250565b6000614c24601683613acc565b9150614c2f82614bee565b602082019050919050565b60006020820190508181036000830152614c5381614c17565b9050919050565b7f44657669636520697320616c7265616479207265676973746572656400000000600082015250565b6000614c90601c83613acc565b9150614c9b82614c5a565b602082019050919050565b60006020820190508181036000830152614cbf81614c83565b9050919050565b7f5075626c69634b65792063616e6e6f7420626520656d70747900000000000000600082015250565b6000614cfc601983613acc565b9150614d0782614cc6565b602082019050919050565b60006020820190508181036000830152614d2b81614cef565b9050919050565b7f5075626c6963206b657920697320616c726561647920696e2075736500000000600082015250565b6000614d68601c83613acc565b9150614d7382614d32565b602082019050919050565b60006020820190508181036000830152614d9781614d5b565b9050919050565b7f596f752063616e206f6e6c79207265676973746572206465766963657320666f60008201527f7220796f757273656c6600000000000000000000000000000000000000000000602082015250565b6000614dfa602a83613acc565b9150614e0582614d9e565b604082019050919050565b60006020820190508181036000830152614e2981614ded565b9050919050565b7f466565206d7573742062652067726561746572207468616e2030000000000000600082015250565b6000614e66601a83613acc565b9150614e7182614e30565b602082019050919050565b60006020820190508181036000830152614e9581614e59565b9050919050565b7f496e76616c6964206465766963652074797065206c656e677468000000000000600082015250565b6000614ed2601a83613acc565b9150614edd82614e9c565b602082019050919050565b60006020820190508181036000830152614f0181614ec5565b9050919050565b7f4e487b7100000000000000000000000000000000000000000000000000000000600052604160045260246000fd5b60008190508160005260206000209050919050565b60006020601f8301049050919050565b600082821b905092915050565b600060088302614f997fffffffffffffffffffffffffffffffffffffffffffffffffffffffffffffffff82614f5c565b614fa38683614f5c565b95508019841693508086168417925050509392505050565b6000819050919050565b6000614fe0614fdb614fd684613b51565b614fbb565b613b51565b9050919050565b6000819050919050565b614ffa83614fc5565b61500e61500682614fe7565b848454614f69565b825550505050565b600090565b615023615016565b61502e818484614ff1565b505050565b5b818110156150525761504760008261501b565b600181019050615034565b5050565b601f8211156150975761506881614f37565b61507184614f4c565b81016020851015615080578190505b61509461508c85614f4c565b830182615033565b50505b505050565b600082821c905092915050565b60006150ba6000198460080261509c565b1980831691505092915050565b60006150d383836150a9565b9150826002028217905092915050565b6150ec82613ac1565b67ffffffffffffffff81111561510557615104614f08565b5b61510f82546140a9565b61511a828285615056565b600060209050601f83116001811461514d576000841561513b578287015190505b61514585826150c7565b8655506151ad565b601f19841661515b86614f37565b60005b828110156151835784890151825560018201915060208501945060208101905061515e565b868310156151a0578489015161519c601f8916826150a9565b8355505b6001600288020188555050505b505050505050565b82818337600083830152505050565b60006151d08385613acc565b93506151dd8385846151b5565b6151e683613b07565b840190509392505050565b6000606082019050818103600083015261520c8186886151c4565b905061521b6020830185613b74565b6152286040830184613b5b565b95945050505050565b600082905092915050565b6152468383615231565b67ffffffffffffffff81111561525f5761525e614f08565b5b61526982546140a9565b615274828285615056565b6000601f8311600181146152a35760008415615291578287013590505b61529b85826150c7565b865550615303565b601f1984166152b186614f37565b60005b828110156152d9578489013582556001820191506020850194506020810190506152b4565b868310156152f657848901356152f2601f8916826150a9565b8355505b6001600288020188555050505b50505050505050565b600060408201905081810360008301526153278185876151c4565b90506153366020830184613b5b565b94935050505056fea2646970667358221220f4d03c320d4b7323dc3557188d2ba4e16f9909bb42a5eb7019d888fbcaba736264736f6c634300081c0033",
  "linkReferences": {},
  "deployedLinkReferences": {}
}