{
  "_format": "hh-sol-artifact-1",
  "contractName": "DeviceSharing",
  "sourceName": "contracts/DeviceSharing.sol",
  "abi": [
    {
      "inputs": [
        {
          "internalType": "address",
          "name": "initialOwner",
          "type": "address"
        }
      ],
      "stateMutability": "nonpayable",
      "type": "constructor"
    },
    {
      "inputs": [
        {
          "internalType": "address",
          "name": "owner",
          "type": "address"
        }
      ],
      "name": "OwnableInvalidOwner",
      "type": "error"
    },
    {
      "inputs": [
        {
          "internalType": "address",
          "name": "account",
          "type": "address"
        }
      ],
      "name": "OwnableUnauthorizedAccount",
      "type": "error"
    },
    {
      "inputs": [],
      "name": "ReentrancyGuardReentrantCall",
      "type": "error"
    },
    {
      "anonymous": false,
      "inputs": [
        {
          "indexed": true,
          "internalType": "uint256",
          "name": "id",
          "type": "uint256"
        },
        {
          "indexed": true,
          "internalType": "bytes32",
          "name": "deviceId",
          "type": "bytes32"
        },
        {
          "indexed": true,
          "internalType": "address",
          "name": "deviceOwner",
          "type": "address"
        },
        {
          "indexed": false,
          "internalType": "uint256",
          "name": "feePerDay",
          "type": "uint256"
        }
      ],
      "name": "DeviceRegistered",
      "type": "event"
    },
    {
      "anonymous": false,
      "inputs": [
        {
          "indexed": true,
          "internalType": "uint256",
          "name": "id",
          "type": "uint256"
        },
        {
          "indexed": true,
          "internalType": "address",
          "name": "owner",
          "type": "address"
        }
      ],
      "name": "DeviceRemoved",
      "type": "event"
    },
    {
      "anonymous": false,
      "inputs": [
        {
          "indexed": true,
          "internalType": "uint256",
          "name": "id",
          "type": "uint256"
        },
        {
          "indexed": false,
          "internalType": "bool",
          "name": "isActive",
          "type": "bool"
        },
        {
          "indexed": true,
          "internalType": "address",
          "name": "owner",
          "type": "address"
        }
      ],
      "name": "DeviceStatusChanged",
      "type": "event"
    },
    {
      "anonymous": false,
      "inputs": [
        {
          "indexed": true,
          "internalType": "uint256",
          "name": "id",
          "type": "uint256"
        },
        {
          "indexed": false,
          "internalType": "uint256",
          "name": "feePerDay",
          "type": "uint256"
        },
        {
          "indexed": true,
          "internalType": "address",
          "name": "owner",
          "type": "address"
        }
      ],
      "name": "DeviceUpdated",
      "type": "event"
    },
    {
      "anonymous": false,
      "inputs": [
        {
          "indexed": true,
          "internalType": "address",
          "name": "subscriber",
          "type": "address"
        },
        {
          "indexed": false,
          "internalType": "address",
          "name": "deviceOwner",
          "type": "address"
        },
        {
          "indexed": false,
          "internalType": "uint256",
          "name": "totalFee",
          "type": "uint256"
        }
      ],
      "name": "FeePaid",
      "type": "event"
    },
    {
      "anonymous": false,
      "inputs": [
        {
          "indexed": true,
          "internalType": "address",
          "name": "previousOwner",
          "type": "address"
        },
        {
          "indexed": true,
          "internalType": "address",
          "name": "newOwner",
          "type": "address"
        }
      ],
      "name": "OwnershipTransferred",
      "type": "event"
    },
    {
      "anonymous": false,
      "inputs": [
        {
          "indexed": true,
          "internalType": "uint256",
          "name": "id",
          "type": "uint256"
        },
        {
          "indexed": false,
          "internalType": "uint256",
          "name": "registrationReward",
          "type": "uint256"
        },
        {
          "indexed": false,
          "internalType": "address",
          "name": "deviceOwner",
          "type": "address"
        }
      ],
      "name": "RegistrationRewardFailed",
      "type": "event"
    },
    {
      "anonymous": false,
      "inputs": [
        {
          "indexed": true,
          "internalType": "uint256",
          "name": "id",
          "type": "uint256"
        },
        {
          "indexed": false,
          "internalType": "uint256",
          "name": "registrationReward",
          "type": "uint256"
        },
        {
          "indexed": false,
          "internalType": "address",
          "name": "deviceOwner",
          "type": "address"
        }
      ],
      "name": "RegistrationRewardPaid",
      "type": "event"
    },
    {
      "anonymous": false,
      "inputs": [
        {
          "indexed": true,
          "internalType": "uint256",
          "name": "id",
          "type": "uint256"
        },
        {
          "indexed": true,
          "internalType": "address",
          "name": "subscriber",
          "type": "address"
        },
        {
          "indexed": true,
          "internalType": "bytes32",
          "name": "deviceId",
          "type": "bytes32"
        },
        {
          "indexed": false,
          "internalType": "uint256",
          "name": "startTime",
          "type": "uint256"
        },
        {
          "indexed": false,
          "internalType": "uint256",
          "name": "endTime",
          "type": "uint256"
        },
        {
          "indexed": false,
          "internalType": "uint256",
          "name": "feePaid",
          "type": "uint256"
        },
        {
          "indexed": false,
          "internalType": "enum DeviceSharing.Duration",
          "name": "durationType",
          "type": "uint8"
        },
        {
          "indexed": false,
          "internalType": "enum DeviceSharing.SubscriptionStatus",
          "name": "status",
          "type": "uint8"
        }
      ],
      "name": "SubscriptionCreated",
      "type": "event"
    },
    {
      "anonymous": false,
      "inputs": [
        {
          "indexed": true,
          "internalType": "uint256",
          "name": "subscriptionId",
          "type": "uint256"
        },
        {
          "indexed": true,
          "internalType": "address",
          "name": "subscriber",
          "type": "address"
        }
      ],
      "name": "SubscriptionExpired",
      "type": "event"
    },
    {
      "inputs": [
        {
          "internalType": "string",
          "name": "device_id",
          "type": "string"
        },
        {
          "internalType": "bool",
          "name": "newStatus",
          "type": "bool"
        }
      ],
      "name": "changeDeviceStatus",
      "outputs": [],
      "stateMutability": "nonpayable",
      "type": "function"
    },
    {
      "inputs": [
        {
          "internalType": "bytes32",
          "name": "",
          "type": "bytes32"
        }
      ],
      "name": "deviceIdToHash",
      "outputs": [
        {
          "internalType": "uint256",
          "name": "",
          "type": "uint256"
        }
      ],
      "stateMutability": "view",
      "type": "function"
    },
    {
      "inputs": [
        {
          "internalType": "bytes32",
          "name": "",
          "type": "bytes32"
        },
        {
          "internalType": "uint256",
          "name": "",
          "type": "uint256"
        }
      ],
      "name": "deviceSubscriptions",
      "outputs": [
        {
          "internalType": "uint256",
          "name": "",
          "type": "uint256"
        }
      ],
      "stateMutability": "view",
      "type": "function"
    },
    {
      "inputs": [
        {
          "internalType": "uint256",
          "name": "",
          "type": "uint256"
        }
      ],
      "name": "devices",
      "outputs": [
        {
          "internalType": "uint256",
          "name": "id",
          "type": "uint256"
        },
        {
          "internalType": "bytes32",
          "name": "deviceId",
          "type": "bytes32"
        },
        {
          "internalType": "address",
          "name": "deviceOwner",
          "type": "address"
        },
        {
          "internalType": "bool",
          "name": "isActive",
          "type": "bool"
        },
        {
          "internalType": "uint256",
          "name": "feePerDay",
          "type": "uint256"
        }
      ],
      "stateMutability": "view",
      "type": "function"
    },
    {
      "inputs": [
        {
          "internalType": "uint256",
          "name": "subscriptionId",
          "type": "uint256"
        }
      ],
      "name": "expireSubscription",
      "outputs": [],
      "stateMutability": "nonpayable",
      "type": "function"
    },
    {
      "inputs": [],
      "name": "fundContract",
      "outputs": [],
      "stateMutability": "payable",
      "type": "function"
    },
    {
      "inputs": [
        {
          "internalType": "string",
          "name": "device_id",
          "type": "string"
        }
      ],
      "name": "getDeviceByStringID",
      "outputs": [
        {
          "internalType": "uint256",
          "name": "id",
          "type": "uint256"
        },
        {
          "internalType": "bytes32",
          "name": "deviceId",
          "type": "bytes32"
        },
        {
          "internalType": "address",
          "name": "deviceOwner",
          "type": "address"
        },
        {
          "internalType": "bool",
          "name": "isActive",
          "type": "bool"
        },
        {
          "internalType": "uint256",
          "name": "feePerDay",
          "type": "uint256"
        }
      ],
      "stateMutability": "view",
      "type": "function"
    },
    {
      "inputs": [
        {
          "internalType": "uint256",
          "name": "subscriptionId",
          "type": "uint256"
        }
      ],
      "name": "getSubscriptionById",
      "outputs": [
        {
          "internalType": "uint256",
          "name": "id",
          "type": "uint256"
        },
        {
          "internalType": "address",
          "name": "subscriber",
          "type": "address"
        },
        {
          "internalType": "bytes32",
          "name": "deviceId",
          "type": "bytes32"
        },
        {
          "internalType": "uint256",
          "name": "startTime",
          "type": "uint256"
        },
        {
          "internalType": "uint256",
          "name": "endTime",
          "type": "uint256"
        },
        {
          "internalType": "uint256",
          "name": "feePaid",
          "type": "uint256"
        },
        {
          "internalType": "enum DeviceSharing.Duration",
          "name": "durationType",
          "type": "uint8"
        },
        {
          "internalType": "enum DeviceSharing.SubscriptionStatus",
          "name": "status",
          "type": "uint8"
        }
      ],
      "stateMutability": "view",
      "type": "function"
    },
    {
      "inputs": [
        {
          "internalType": "uint256",
          "name": "subscriptionId",
          "type": "uint256"
        }
      ],
      "name": "isSubscriptionActive",
      "outputs": [
        {
          "internalType": "bool",
          "name": "",
          "type": "bool"
        }
      ],
      "stateMutability": "view",
      "type": "function"
    },
    {
      "inputs": [],
      "name": "nextDeviceId",
      "outputs": [
        {
          "internalType": "uint256",
          "name": "",
          "type": "uint256"
        }
      ],
      "stateMutability": "view",
      "type": "function"
    },
    {
      "inputs": [],
      "name": "nextSubscriptionId",
      "outputs": [
        {
          "internalType": "uint256",
          "name": "",
          "type": "uint256"
        }
      ],
      "stateMutability": "view",
      "type": "function"
    },
    {
      "inputs": [],
      "name": "owner",
      "outputs": [
        {
          "internalType": "address",
          "name": "",
          "type": "address"
        }
      ],
      "stateMutability": "view",
      "type": "function"
    },
    {
      "inputs": [
        {
          "internalType": "string",
          "name": "device_id",
          "type": "string"
        },
        {
          "internalType": "uint256",
          "name": "feePerDay",
          "type": "uint256"
        }
      ],
      "name": "registerDevice",
      "outputs": [],
      "stateMutability": "nonpayable",
      "type": "function"
    },
    {
      "inputs": [],
      "name": "registrationReward",
      "outputs": [
        {
          "internalType": "uint256",
          "name": "",
          "type": "uint256"
        }
      ],
      "stateMutability": "view",
      "type": "function"
    },
    {
      "inputs": [
        {
          "internalType": "string",
          "name": "device_id",
          "type": "string"
        }
      ],
      "name": "removeDevice",
      "outputs": [],
      "stateMutability": "nonpayable",
      "type": "function"
    },
    {
      "inputs": [],
      "name": "renounceOwnership",
      "outputs": [],
      "stateMutability": "nonpayable",
      "type": "function"
    },
    {
      "inputs": [
        {
          "internalType": "uint256",
          "name": "_reward",
          "type": "uint256"
        }
      ],
      "name": "setRegistrationReward",
      "outputs": [],
      "stateMutability": "nonpayable",
      "type": "function"
    },
    {
      "inputs": [
        {
          "internalType": "string",
          "name": "device_id",
          "type": "string"
        },
        {
          "internalType": "enum DeviceSharing.Duration",
          "name": "duration",
          "type": "uint8"
        }
      ],
      "name": "subscribe",
      "outputs": [],
      "stateMutability": "payable",
      "type": "function"
    },
    {
      "inputs": [
        {
          "internalType": "uint256",
          "name": "",
          "type": "uint256"
        }
      ],
      "name": "subscriptions",
      "outputs": [
        {
          "internalType": "uint256",
          "name": "id",
          "type": "uint256"
        },
        {
          "internalType": "address",
          "name": "subscriber",
          "type": "address"
        },
        {
          "internalType": "bytes32",
          "name": "deviceId",
          "type": "bytes32"
        },
        {
          "internalType": "uint256",
          "name": "startTime",
          "type": "uint256"
        },
        {
          "internalType": "uint256",
          "name": "endTime",
          "type": "uint256"
        },
        {
          "internalType": "uint256",
          "name": "feePaid",
          "type": "uint256"
        },
        {
          "internalType": "enum DeviceSharing.Duration",
          "name": "durationType",
          "type": "uint8"
        },
        {
          "internalType": "enum DeviceSharing.SubscriptionStatus",
          "name": "status",
          "type": "uint8"
        }
      ],
      "stateMutability": "view",
      "type": "function"
    },
    {
      "inputs": [
        {
          "internalType": "address",
          "name": "newOwner",
          "type": "address"
        }
      ],
      "name": "transferOwnership",
      "outputs": [],
      "stateMutability": "nonpayable",
      "type": "function"
    },
    {
      "inputs": [
        {
          "internalType": "string",
          "name": "device_id",
          "type": "string"
        },
        {
          "internalType": "uint256",
          "name": "newFee",
          "type": "uint256"
        }
      ],
      "name": "updateDevice",
      "outputs": [],
      "stateMutability": "nonpayable",
      "type": "function"
    },
    {
      "stateMutability": "payable",
      "type": "receive"
    }
  ],
  "bytecode": "0x60803460ca57601f6119c138819003918201601f19168301916001600160401b0383118484101760cf5780849260209460405283398101031260ca57516001600160a01b0381169081900360ca57801560b457600080546001600160a01b031981168317825560405192916001600160a01b03909116907f8be0079c531659141344cd1fd0a4f28419497f9722a3daafe3b4186f6b6457e09080a360018055600160065560016007556118db90816100e68239f35b631e4fbdf760e01b600052600060045260246000fd5b600080fd5b634e487b7160e01b600052604160045260246000fdfe608080604052600436101561001d575b50361561001b57600080fd5b005b60003560e01c90816310ff8e31146115345750806319082e0b1461150857806320062396146114245780632a00706a146112955780632d5bbf601461122d57806345cfb9371461111d578063493a757614610f1b57806357e2c0f514610e5a5780636895b290146109435780636c27a46e1461080f578063715018a6146107b6578063865909f6146107985780638a74e6d2146107775780638da5cb5b1461074e578063afc3afa6146104dd578063bd097e211461047c578063c5574bd314610227578063cdb07754146101df578063da58935f146101c1578063eb780f42146101a35763f2fde38b14610111573861000f565b3461019e57602036600319011261019e576004356001600160a01b0381169081900361019e5761013f61187c565b801561018857600080546001600160a01b03198116831782556001600160a01b0316907f8be0079c531659141344cd1fd0a4f28419497f9722a3daafe3b4186f6b6457e09080a3005b631e4fbdf760e01b600052600060045260246000fd5b600080fd5b3461019e57600036600319011261019e576020600654604051908152f35b3461019e57600036600319011261019e576020600754604051908152f35b3461019e57604036600319011261019e5760243560043560005260056020526040600020805482101561019e5760209161021891611702565b90549060031b1c604051908152f35b3461019e57610235366116d0565b9061024281511515611748565b81156104375760405161026b8161025d602082018095611794565b03601f19810183528261164b565b519020908160005260036020526040600020546103f2576006549161028f8361183d565b60065560405161029e8161162f565b83815260208082018381523360408085019182526001606086018181526080870189815260008b8152600297889052939093209651875593519086015590519284018054925160ff60a01b90151560a01b166001600160a01b039094166001600160a81b0319909316929092179290921790556003905191015580600052600360205282604060002055604051918252827fd06ff819ed431c074e24adbec5556a436c5fd1b17492b3320ce0b09502c4ca6d60203394a4600854801515806103e8575b61036757005b600080808093335af161037861184c565b50156103b357600854604080519182523360208301527f0cc9cb7909b764320c359118f52dfa1490e241b25857c8a645597416b21a2e8791a2005b600854604080519182523360208301527f167c75c86a57db58ffc69587991cae1f914ce828d01205b109ed9f685adc5bbf91a2005b5080471015610361565b60405162461bcd60e51b815260206004820152601960248201527f546869732064657669636520616c7265616479206578697374000000000000006044820152606490fd5b60405162461bcd60e51b815260206004820152601a60248201527f466565206d7573742062652067726561746572207468616e20300000000000006044820152606490fd5b600036600319011261019e5761049061187c565b341561049857005b60405162461bcd60e51b815260206004820152601860248201527f4d7573742073656e6420746f6b656e7320746f2066756e6400000000000000006044820152606490fd5b3461019e57602036600319011261019e5760043567ffffffffffffffff811161019e5761050e903690600401611689565b61051a81511515611748565b60405160208101906105308161025d8486611794565b51902080600052600360205261055e60406000205491826000526002602052600160406000200154146117bf565b600052600260205261058160018060a01b036002604060002001541633146117fe565b6040516105968161025d602082018095611794565b5190208060005260036020526040600020548160005260056020526040600020906040518083602082955493848152019060005260206000209260005b8181106107355750506105e89250038361164b565b60005b825181101561069d57600060208260051b850101518152600460205260ff600660408320015460081c1690600282101561068957501561062d576001016105eb565b60405162461bcd60e51b815260206004820152602e60248201527f43616e6e6f742072656d6f76652064657669636520776974682061637469766560448201526d20737562736372697074696f6e7360901b6064820152608490fd5b634e487b7160e01b81526021600452602490fd5b50828160005260026020526000600360408220828155826001820155826002820155015580600052600360205260006040812055600052600560205260406000208054906000815581610714575b33837f34077899b9358b22cc7053957ccaf74d4a19b82cfb8fea30c5ef595b1b61c4bc600080a3005b6000526020600020908101905b818110156106eb5760008155600101610721565b84548352600194850194879450602090930192016105d3565b3461019e57600036600319011261019e576000546040516001600160a01b039091168152602090f35b3461019e57602036600319011261019e5761079061187c565b600435600855005b3461019e57600036600319011261019e576020600854604051908152f35b3461019e57600036600319011261019e576107cf61187c565b600080546001600160a01b0319811682556001600160a01b03167f8be0079c531659141344cd1fd0a4f28419497f9722a3daafe3b4186f6b6457e08280a3005b3461019e5761081d366116d0565b9061082a81511515611748565b60405160208101906108408161025d8486611794565b51902080600052600360205261086e60406000205491826000526002602052600160406000200154146117bf565b600052600260205261089160018060a01b036002604060002001541633146117fe565b81156108fe576040516108ac8161025d602082018095611794565b5190206000526003602052604060002054806000526002602052816003604060002001556040519182527f21b7e77bde1978b1b6512a0014e5e88d5b124503f18d2fb638c62cffd6c6d4e460203393a3005b60405162461bcd60e51b815260206004820152601760248201527f4665652063616e6e6f742062652030206f72206c6573730000000000000000006044820152606490fd5b604036600319011261019e5760043567ffffffffffffffff811161019e5761096f903690600401611689565b60243590600382101561019e57600260015414610e4957600260015561099781511515611748565b6040516109ac8161025d602082018095611794565b51902080600052600360205260406000205460005260026020526040600020604051906109d88261162f565b805482526001810154806020840152610a218460028401549260806003604088019660018060a01b038716885260ff60608a019760a01c161515875201549601958652146117bf565b5115610e0d5783610db5576001915b519180830292808404821490151715610d6357823410610d795762015180810290808204620151801490151715610d6357420191824211610d635760009460075492610a7b8461183d565b600755604051610a8a816115fc565b84815260066020820191338352604081018981526060820142815260808301908a825260a084019289845260c0850196610ac48a89611730565b60e086019e8f528b600052600460205260406000209551865560018060a01b03905116600186019060018060a01b03166bffffffffffffffffffffffff60a01b825416179055516002850155516003840155516004830155516005820155019051976003891015610d4d5760009860ff80198454169116178255516002811015610d395761ff0082549160081b169061ff00191617905585875260056020526040872080549068010000000000000000821015610d2557610b8f82610ba69260018995018155611702565b819391549060031b91821b91600019901b19161790565b9055868080808660018060a01b038651165af1610bc161184c565b5015610cd55760018060a01b039051166040519081528260208201527fbf6afbaffb3b955bebbf43430bbf8eecb8d34ff86f293f592203ab5ed79c526860403392a2813411610c5d575b610c2a91604051944286526020860152604085015260608401906115a0565b8360808301527fa05c3cae17d36103443ee560cbd4353cc746cb3ed56577f19e85b033f1de479160a03393a46001805580f35b813403348111610cc1578680808093335af1610c7761184c565b50610c0b5760405162461bcd60e51b815260206004820152601f60248201527f4661696c656420746f20726566756e6420657863657373207061796d656e74006044820152606490fd5b634e487b7160e01b87526011600452602487fd5b60405162461bcd60e51b815260206004820152602260248201527f6661696c656420746f2073656e642066656520746f20646576696365206f776e60448201526132b960f11b6064820152608490fd5b634e487b7160e01b89526041600452602489fd5b634e487b7160e01b89526021600452602489fd5b634e487b7160e01b600052602160045260246000fd5b634e487b7160e01b600052601160045260246000fd5b60405162461bcd60e51b8152602060048201526014602482015273125b9cdd59999a58da595b9d081c185e5b595b9d60621b6044820152606490fd5b60018403610dc557600791610a30565b60028403610dd557601e91610a30565b60405162461bcd60e51b815260206004820152601060248201526f24b73b30b634b210323ab930ba34b7b760811b6044820152606490fd5b60405162461bcd60e51b8152602060048201526014602482015273446576696365206973206e6f742061637469766560601b6044820152606490fd5b633ee5aeb560e01b60005260046000fd5b3461019e57602036600319011261019e5760043560005260046020526040600020604051610e87816115fc565b8154815260018060a01b0360018301541660208201526002820154604082015260038201546060820152610eef60ff60e0600660048601549560808601968752600581015460a0870152015493610ee383861660c08301611730565b019260081c168261173c565b51906002821015610d4d57602091159081610f10575b506040519015158152f35b905051421082610f05565b3461019e57602036600319011261019e576004358060005260046020526040600020600681019060ff825460081c166002811015610d4d576110d8576004810154421115611089576002810154825461ff00191661010017909255600101546001600160a01b0316827f9656891580eaa37c2f3f563b0bfd328350a3b08b70dda0d9c2cb9995ada7867c600080a381600052600460205260006006604082208281558260018201558260028201558260038201558260048201558260058201550155600052600560205260406000209060005b82548082101561001b57826110038386611702565b90549060031b1c146110185750600101610fee565b9091506000198101908111610d6357610b8f6110376110459285611702565b90549060031b1c9284611702565b90558054801561107357600019019061105e8282611702565b8154906000199060031b1b1916905555600080f35b634e487b7160e01b600052603160045260246000fd5b60405162461bcd60e51b815260206004820152602160248201527f537562736372697074696f6e20706572696f64206e6f7420656e6465642079656044820152601d60fa1b6064820152608490fd5b60405162461bcd60e51b815260206004820152601a60248201527f537562736372697074696f6e206973206e6f74206163746976650000000000006044820152606490fd5b3461019e57602036600319011261019e5760043567ffffffffffffffff811161019e5761114e903690600401611689565b61115a81511515611748565b60405161116f8161025d602082018095611794565b5190208060005260036020526040600020546000526002602052604060002061122960405161119d8161162f565b8254815260018301548060208301526002840154916111e7866003604084019760018060a01b038716895260ff606086019760a01c161515875201549360808401948552146117bf565b519351915190516040805195865260208601969096526001600160a01b03909216948401949094529215156060830152608082019290925290819060a0820190565b0390f35b3461019e57602036600319011261019e576004356000526004602052604060002080549061122960018060a01b03600183015416916002810154936003820154916004810154600660058301549201549360405197889760ff808860081c16971695896115ad565b3461019e57604036600319011261019e5760043567ffffffffffffffff811161019e576112c6903690600401611689565b6024358015159182820361019e576112e081511515611748565b60405160208101906112f68161025d8486611794565b51902080600052600360205261132460406000205491826000526002602052600160406000200154146117bf565b600052600260205261134760018060a01b036002604060002001541633146117fe565b60405161135c8161025d602082018095611794565b5190206000526003602052604060002054908160005260026020528260ff60026040600020015460a01c161515146113e957600082815260026020819052604090912001805460ff60a01b191691151560a01b60ff60a01b169190911790556040519182527f110f85c5b3d225e011c0343e0461cb8f14ec3498c0a18e07c0a366773ceb66b260203393a3005b60405162461bcd60e51b81526020600482015260136024820152724e6f206368616e676520696e2073746174757360681b6044820152606490fd5b3461019e57602036600319011261019e576004356000526004602052604060002060405190611452826115fc565b8054825260018060a01b036001820154169060208301918252600281015492604081019384526003820154916060820192835260048101549160808101928352600660058301549260a0830193845201549160c08201916114b660ff851684611730565b6114ca60ff60e083019560081c168561173c565b519551965194519351905191516001600160a01b0390971696926003841015610d4d5751936002851015610d4d5761122995604051988998896115ad565b3461019e57602036600319011261019e5760043560005260036020526020604060002054604051908152f35b3461019e57602036600319011261019e576004356000908152600260208181526040928390208054600182015493820154600390920154908652918501929092526001600160a01b0382169284019290925260ff60a091821c1615156060840152608083019190915290f35b906003821015610d4d5752565b95926115ed959299989794919961010088019a885260018060a01b0316602088015260408701526060860152608085015260a084015260c08301906115a0565b6002821015610d4d5760e00152565b610100810190811067ffffffffffffffff82111761161957604052565b634e487b7160e01b600052604160045260246000fd5b60a0810190811067ffffffffffffffff82111761161957604052565b90601f8019910116810190811067ffffffffffffffff82111761161957604052565b67ffffffffffffffff811161161957601f01601f191660200190565b81601f8201121561019e578035906116a08261166d565b926116ae604051948561164b565b8284526020838301011161019e57816000926020809301838601378301015290565b604060031982011261019e576004359067ffffffffffffffff821161019e576116fb91600401611689565b9060243590565b805482101561171a5760005260206000200190600090565b634e487b7160e01b600052603260045260246000fd5b6003821015610d4d5752565b6002821015610d4d5752565b1561174f57565b60405162461bcd60e51b815260206004820152601960248201527f4465766963652049442063616e6e6f7420626520656d707479000000000000006044820152606490fd5b9081519160005b8381106117ac575050016000815290565b806020809284010151818501520161179b565b156117c657565b60405162461bcd60e51b815260206004820152601060248201526f11195d9a58d9481b9bdd08199bdd5b9960821b6044820152606490fd5b1561180557565b60405162461bcd60e51b815260206004820152601060248201526f2737ba103232bb34b1b29037bbb732b960811b6044820152606490fd5b6000198114610d635760010190565b3d15611877573d9061185d8261166d565b9161186b604051938461164b565b82523d6000602084013e565b606090565b6000546001600160a01b0316330361189057565b63118cdaa760e01b6000523360045260246000fdfea264697066735822122024314a691396f6e7a7e0bab2e5a118d3c0598bace87637cfc3c53ceb09c9843464736f6c634300081c0033",
  "linkReferences": {},
  "deployedLinkReferences": {}
}